{
  "_format": "hh-sol-artifact-1",
  "contractName": "GrandPuzzlePiece",
  "sourceName": "contracts/GrandPuzzlePiece.sol",
  "abi": [
    {
      "inputs": [
        {
          "internalType": "string",
          "name": "_name",
          "type": "string"
        },
        {
          "internalType": "string",
          "name": "_symbol",
          "type": "string"
        },
        {
          "internalType": "uint256",
          "name": "_mint_fee",
          "type": "uint256"
        },
        {
          "internalType": "address[]",
          "name": "_whitelisted_addresses",
          "type": "address[]"
        }
      ],
      "stateMutability": "nonpayable",
      "type": "constructor"
    },
    {
      "inputs": [],
      "name": "ECDSAInvalidSignature",
      "type": "error"
    },
    {
      "inputs": [
        {
          "internalType": "uint256",
          "name": "length",
          "type": "uint256"
        }
      ],
      "name": "ECDSAInvalidSignatureLength",
      "type": "error"
    },
    {
      "inputs": [
        {
          "internalType": "bytes32",
          "name": "s",
          "type": "bytes32"
        }
      ],
      "name": "ECDSAInvalidSignatureS",
      "type": "error"
    },
    {
      "inputs": [
        {
          "internalType": "address",
          "name": "sender",
          "type": "address"
        },
        {
          "internalType": "uint256",
          "name": "tokenId",
          "type": "uint256"
        },
        {
          "internalType": "address",
          "name": "owner",
          "type": "address"
        }
      ],
      "name": "ERC721IncorrectOwner",
      "type": "error"
    },
    {
      "inputs": [
        {
          "internalType": "address",
          "name": "operator",
          "type": "address"
        },
        {
          "internalType": "uint256",
          "name": "tokenId",
          "type": "uint256"
        }
      ],
      "name": "ERC721InsufficientApproval",
      "type": "error"
    },
    {
      "inputs": [
        {
          "internalType": "address",
          "name": "approver",
          "type": "address"
        }
      ],
      "name": "ERC721InvalidApprover",
      "type": "error"
    },
    {
      "inputs": [
        {
          "internalType": "address",
          "name": "operator",
          "type": "address"
        }
      ],
      "name": "ERC721InvalidOperator",
      "type": "error"
    },
    {
      "inputs": [
        {
          "internalType": "address",
          "name": "owner",
          "type": "address"
        }
      ],
      "name": "ERC721InvalidOwner",
      "type": "error"
    },
    {
      "inputs": [
        {
          "internalType": "address",
          "name": "receiver",
          "type": "address"
        }
      ],
      "name": "ERC721InvalidReceiver",
      "type": "error"
    },
    {
      "inputs": [
        {
          "internalType": "address",
          "name": "sender",
          "type": "address"
        }
      ],
      "name": "ERC721InvalidSender",
      "type": "error"
    },
    {
      "inputs": [
        {
          "internalType": "uint256",
          "name": "tokenId",
          "type": "uint256"
        }
      ],
      "name": "ERC721NonexistentToken",
      "type": "error"
    },
    {
      "inputs": [
        {
          "internalType": "address",
          "name": "owner",
          "type": "address"
        }
      ],
      "name": "OwnableInvalidOwner",
      "type": "error"
    },
    {
      "inputs": [
        {
          "internalType": "address",
          "name": "account",
          "type": "address"
        }
      ],
      "name": "OwnableUnauthorizedAccount",
      "type": "error"
    },
    {
      "anonymous": false,
      "inputs": [
        {
          "indexed": true,
          "internalType": "address",
          "name": "owner",
          "type": "address"
        },
        {
          "indexed": true,
          "internalType": "address",
          "name": "approved",
          "type": "address"
        },
        {
          "indexed": true,
          "internalType": "uint256",
          "name": "tokenId",
          "type": "uint256"
        }
      ],
      "name": "Approval",
      "type": "event"
    },
    {
      "anonymous": false,
      "inputs": [
        {
          "indexed": true,
          "internalType": "address",
          "name": "owner",
          "type": "address"
        },
        {
          "indexed": true,
          "internalType": "address",
          "name": "operator",
          "type": "address"
        },
        {
          "indexed": false,
          "internalType": "bool",
          "name": "approved",
          "type": "bool"
        }
      ],
      "name": "ApprovalForAll",
      "type": "event"
    },
    {
      "anonymous": false,
      "inputs": [
        {
          "indexed": true,
          "internalType": "string",
          "name": "_baseTokenURI",
          "type": "string"
        }
      ],
      "name": "BaseURIUpdated",
      "type": "event"
    },
    {
      "anonymous": false,
      "inputs": [
        {
          "indexed": true,
          "internalType": "address",
          "name": "_recipient",
          "type": "address"
        },
        {
          "indexed": true,
          "internalType": "string",
          "name": "_mission_symbol",
          "type": "string"
        }
      ],
      "name": "FinishedMission",
      "type": "event"
    },
    {
      "anonymous": false,
      "inputs": [
        {
          "indexed": true,
          "internalType": "uint256",
          "name": "_new_fee",
          "type": "uint256"
        }
      ],
      "name": "MintFeeUpdated",
      "type": "event"
    },
    {
      "anonymous": false,
      "inputs": [
        {
          "indexed": true,
          "internalType": "address",
          "name": "previousOwner",
          "type": "address"
        },
        {
          "indexed": true,
          "internalType": "address",
          "name": "newOwner",
          "type": "address"
        }
      ],
      "name": "OwnershipTransferred",
      "type": "event"
    },
    {
      "anonymous": false,
      "inputs": [
        {
          "indexed": true,
          "internalType": "enum GrandPuzzlePiece.MissionStatus",
          "name": "_status",
          "type": "uint8"
        }
      ],
      "name": "StatusUpdated",
      "type": "event"
    },
    {
      "anonymous": false,
      "inputs": [
        {
          "indexed": true,
          "internalType": "address",
          "name": "from",
          "type": "address"
        },
        {
          "indexed": true,
          "internalType": "address",
          "name": "to",
          "type": "address"
        },
        {
          "indexed": true,
          "internalType": "uint256",
          "name": "tokenId",
          "type": "uint256"
        }
      ],
      "name": "Transfer",
      "type": "event"
    },
    {
      "anonymous": false,
      "inputs": [],
      "name": "WhitelistUpdated",
      "type": "event"
    },
    {
      "stateMutability": "payable",
      "type": "fallback"
    },
    {
      "inputs": [
        {
          "internalType": "address[]",
          "name": "_addresses",
          "type": "address[]"
        }
      ],
      "name": "addToWhitelist",
      "outputs": [],
      "stateMutability": "nonpayable",
      "type": "function"
    },
    {
      "inputs": [
        {
          "internalType": "address",
          "name": "to",
          "type": "address"
        },
        {
          "internalType": "uint256",
          "name": "tokenId",
          "type": "uint256"
        }
      ],
      "name": "approve",
      "outputs": [],
      "stateMutability": "nonpayable",
      "type": "function"
    },
    {
      "inputs": [
        {
          "internalType": "address",
          "name": "owner",
          "type": "address"
        }
      ],
      "name": "balanceOf",
      "outputs": [
        {
          "internalType": "uint256",
          "name": "",
          "type": "uint256"
        }
      ],
      "stateMutability": "view",
      "type": "function"
    },
    {
      "inputs": [],
      "name": "baseTokenURI",
      "outputs": [
        {
          "internalType": "string",
          "name": "",
          "type": "string"
        }
      ],
      "stateMutability": "view",
      "type": "function"
    },
    {
      "inputs": [
        {
          "internalType": "uint256",
          "name": "tokenId",
          "type": "uint256"
        }
      ],
      "name": "getApproved",
      "outputs": [
        {
          "internalType": "address",
          "name": "",
          "type": "address"
        }
      ],
      "stateMutability": "view",
      "type": "function"
    },
    {
      "inputs": [
        {
          "internalType": "address",
          "name": "owner",
          "type": "address"
        },
        {
          "internalType": "address",
          "name": "operator",
          "type": "address"
        }
      ],
      "name": "isApprovedForAll",
      "outputs": [
        {
          "internalType": "bool",
          "name": "",
          "type": "bool"
        }
      ],
      "stateMutability": "view",
      "type": "function"
    },
    {
      "inputs": [
        {
          "internalType": "address",
          "name": "user",
          "type": "address"
        }
      ],
      "name": "isWhitelisted",
      "outputs": [
        {
          "internalType": "bool",
          "name": "",
          "type": "bool"
        }
      ],
      "stateMutability": "view",
      "type": "function"
    },
    {
      "inputs": [],
      "name": "mint_fee",
      "outputs": [
        {
          "internalType": "uint256",
          "name": "",
          "type": "uint256"
        }
      ],
      "stateMutability": "view",
      "type": "function"
    },
    {
      "inputs": [],
      "name": "name",
      "outputs": [
        {
          "internalType": "string",
          "name": "",
          "type": "string"
        }
      ],
      "stateMutability": "view",
      "type": "function"
    },
    {
      "inputs": [],
      "name": "owner",
      "outputs": [
        {
          "internalType": "address",
          "name": "",
          "type": "address"
        }
      ],
      "stateMutability": "view",
      "type": "function"
    },
    {
      "inputs": [
        {
          "internalType": "uint256",
          "name": "tokenId",
          "type": "uint256"
        }
      ],
      "name": "ownerOf",
      "outputs": [
        {
          "internalType": "address",
          "name": "",
          "type": "address"
        }
      ],
      "stateMutability": "view",
      "type": "function"
    },
    {
      "inputs": [
        {
          "internalType": "address",
          "name": "_recipient",
          "type": "address"
        },
        {
          "internalType": "bytes",
          "name": "_signature",
          "type": "bytes"
        }
      ],
      "name": "publicMintPuzzlePiece",
      "outputs": [],
      "stateMutability": "payable",
      "type": "function"
    },
    {
      "inputs": [
        {
          "internalType": "address[]",
          "name": "_addresses",
          "type": "address[]"
        }
      ],
      "name": "removeFromWhitelist",
      "outputs": [],
      "stateMutability": "nonpayable",
      "type": "function"
    },
    {
      "inputs": [],
      "name": "renounceOwnership",
      "outputs": [],
      "stateMutability": "nonpayable",
      "type": "function"
    },
    {
      "inputs": [
        {
          "internalType": "address",
          "name": "from",
          "type": "address"
        },
        {
          "internalType": "address",
          "name": "to",
          "type": "address"
        },
        {
          "internalType": "uint256",
          "name": "tokenId",
          "type": "uint256"
        }
      ],
      "name": "safeTransferFrom",
      "outputs": [],
      "stateMutability": "nonpayable",
      "type": "function"
    },
    {
      "inputs": [
        {
          "internalType": "address",
          "name": "from",
          "type": "address"
        },
        {
          "internalType": "address",
          "name": "to",
          "type": "address"
        },
        {
          "internalType": "uint256",
          "name": "tokenId",
          "type": "uint256"
        },
        {
          "internalType": "bytes",
          "name": "data",
          "type": "bytes"
        }
      ],
      "name": "safeTransferFrom",
      "outputs": [],
      "stateMutability": "nonpayable",
      "type": "function"
    },
    {
      "inputs": [
        {
          "internalType": "address",
          "name": "operator",
          "type": "address"
        },
        {
          "internalType": "bool",
          "name": "approved",
          "type": "bool"
        }
      ],
      "name": "setApprovalForAll",
      "outputs": [],
      "stateMutability": "nonpayable",
      "type": "function"
    },
    {
      "inputs": [
        {
          "internalType": "string",
          "name": "_baseTokenURI",
          "type": "string"
        }
      ],
      "name": "setBaseURI",
      "outputs": [],
      "stateMutability": "nonpayable",
      "type": "function"
    },
    {
      "inputs": [
        {
          "internalType": "uint256",
          "name": "_new_fee",
          "type": "uint256"
        }
      ],
      "name": "setMintFee",
      "outputs": [],
      "stateMutability": "nonpayable",
      "type": "function"
    },
    {
      "inputs": [
        {
          "internalType": "enum GrandPuzzlePiece.MissionStatus",
          "name": "_status",
          "type": "uint8"
        }
      ],
      "name": "setStatus",
      "outputs": [],
      "stateMutability": "nonpayable",
      "type": "function"
    },
    {
      "inputs": [],
      "name": "status",
      "outputs": [
        {
          "internalType": "enum GrandPuzzlePiece.MissionStatus",
          "name": "",
          "type": "uint8"
        }
      ],
      "stateMutability": "view",
      "type": "function"
    },
    {
      "inputs": [],
      "name": "supply",
      "outputs": [
        {
          "internalType": "uint256",
          "name": "",
          "type": "uint256"
        }
      ],
      "stateMutability": "view",
      "type": "function"
    },
    {
      "inputs": [
        {
          "internalType": "bytes4",
          "name": "interfaceId",
          "type": "bytes4"
        }
      ],
      "name": "supportsInterface",
      "outputs": [
        {
          "internalType": "bool",
          "name": "",
          "type": "bool"
        }
      ],
      "stateMutability": "view",
      "type": "function"
    },
    {
      "inputs": [],
      "name": "symbol",
      "outputs": [
        {
          "internalType": "string",
          "name": "",
          "type": "string"
        }
      ],
      "stateMutability": "view",
      "type": "function"
    },
    {
      "inputs": [
        {
          "internalType": "uint256",
          "name": "tokenId",
          "type": "uint256"
        }
      ],
      "name": "tokenURI",
      "outputs": [
        {
          "internalType": "string",
          "name": "",
          "type": "string"
        }
      ],
      "stateMutability": "view",
      "type": "function"
    },
    {
      "inputs": [],
      "name": "totalSupply",
      "outputs": [
        {
          "internalType": "uint256",
          "name": "",
          "type": "uint256"
        }
      ],
      "stateMutability": "view",
      "type": "function"
    },
    {
      "inputs": [
        {
          "internalType": "address",
          "name": "from",
          "type": "address"
        },
        {
          "internalType": "address",
          "name": "to",
          "type": "address"
        },
        {
          "internalType": "uint256",
          "name": "tokenId",
          "type": "uint256"
        }
      ],
      "name": "transferFrom",
      "outputs": [],
      "stateMutability": "nonpayable",
      "type": "function"
    },
    {
      "inputs": [
        {
          "internalType": "address",
          "name": "newOwner",
          "type": "address"
        }
      ],
      "name": "transferOwnership",
      "outputs": [],
      "stateMutability": "nonpayable",
      "type": "function"
    },
    {
      "inputs": [
        {
          "internalType": "address",
          "name": "_recipient",
          "type": "address"
        },
        {
          "internalType": "bytes",
          "name": "_signature",
          "type": "bytes"
        }
      ],
      "name": "whitelistMintPuzzlePiece",
      "outputs": [],
      "stateMutability": "payable",
      "type": "function"
    },
    {
      "inputs": [
        {
          "internalType": "address",
          "name": "_to",
          "type": "address"
        }
      ],
      "name": "withdraw",
      "outputs": [],
      "stateMutability": "nonpayable",
      "type": "function"
    },
    {
      "stateMutability": "payable",
      "type": "receive"
    }
  ],
  "bytecode": "0x608060405234801561001057600080fd5b506040516147aa3803806147aa833981810160405281019061003291906105de565b338484816000908161004491906108b0565b50806001908161005491906108b0565b505050600073ffffffffffffffffffffffffffffffffffffffff168173ffffffffffffffffffffffffffffffffffffffff16036100c95760006040517f1e4fbdf70000000000000000000000000000000000000000000000000000000081526004016100c09190610991565b60405180910390fd5b6100d88161024760201b60201c565b506000600660146101000a81548160ff021916908360028111156100ff576100fe6109ac565b5b02179055508160088190555060005b8151811015610196576001600a60008484815181106101305761012f6109db565b5b602002602001015173ffffffffffffffffffffffffffffffffffffffff1673ffffffffffffffffffffffffffffffffffffffff16815260200190815260200160002060006101000a81548160ff021916908315150217905550808060010191505061010e565b50817f38fbb1c8b109c430f0c030e7ed076cf5611a307773a4e8e365601e8f8bceaec660405160405180910390a2600660149054906101000a900460ff1660028111156101e6576101e56109ac565b5b7f7101a660456a4e2f94e6b0ccd3d6a034724e26130a817471aaf5a3de8fba384a60405160405180910390a27f22f196d9cf5ab2abfb5e4f2e291a2452f5c28d88e99b62b74b9c6e62ab231a4460405160405180910390a150505050610a0a565b6000600660009054906101000a900473ffffffffffffffffffffffffffffffffffffffff16905081600660006101000a81548173ffffffffffffffffffffffffffffffffffffffff021916908373ffffffffffffffffffffffffffffffffffffffff1602179055508173ffffffffffffffffffffffffffffffffffffffff168173ffffffffffffffffffffffffffffffffffffffff167f8be0079c531659141344cd1fd0a4f28419497f9722a3daafe3b4186f6b6457e060405160405180910390a35050565b6000604051905090565b600080fd5b600080fd5b600080fd5b600080fd5b6000601f19601f8301169050919050565b7f4e487b7100000000000000000000000000000000000000000000000000000000600052604160045260246000fd5b6103748261032b565b810181811067ffffffffffffffff821117156103935761039261033c565b5b80604052505050565b60006103a661030d565b90506103b2828261036b565b919050565b600067ffffffffffffffff8211156103d2576103d161033c565b5b6103db8261032b565b9050602081019050919050565b60005b838110156104065780820151818401526020810190506103eb565b60008484015250505050565b6000610425610420846103b7565b61039c565b90508281526020810184848401111561044157610440610326565b5b61044c8482856103e8565b509392505050565b600082601f83011261046957610468610321565b5b8151610479848260208601610412565b91505092915050565b6000819050919050565b61049581610482565b81146104a057600080fd5b50565b6000815190506104b28161048c565b92915050565b600067ffffffffffffffff8211156104d3576104d261033c565b5b602082029050602081019050919050565b600080fd5b600073ffffffffffffffffffffffffffffffffffffffff82169050919050565b6000610514826104e9565b9050919050565b61052481610509565b811461052f57600080fd5b50565b6000815190506105418161051b565b92915050565b600061055a610555846104b8565b61039c565b9050808382526020820190506020840283018581111561057d5761057c6104e4565b5b835b818110156105a657806105928882610532565b84526020840193505060208101905061057f565b5050509392505050565b600082601f8301126105c5576105c4610321565b5b81516105d5848260208601610547565b91505092915050565b600080600080608085870312156105f8576105f7610317565b5b600085015167ffffffffffffffff8111156106165761061561031c565b5b61062287828801610454565b945050602085015167ffffffffffffffff8111156106435761064261031c565b5b61064f87828801610454565b9350506040610660878288016104a3565b925050606085015167ffffffffffffffff8111156106815761068061031c565b5b61068d878288016105b0565b91505092959194509250565b600081519050919050565b7f4e487b7100000000000000000000000000000000000000000000000000000000600052602260045260246000fd5b600060028204905060018216806106eb57607f821691505b6020821081036106fe576106fd6106a4565b5b50919050565b60008190508160005260206000209050919050565b60006020601f8301049050919050565b600082821b905092915050565b6000600883026107667fffffffffffffffffffffffffffffffffffffffffffffffffffffffffffffffff82610729565b6107708683610729565b95508019841693508086168417925050509392505050565b6000819050919050565b60006107ad6107a86107a384610482565b610788565b610482565b9050919050565b6000819050919050565b6107c783610792565b6107db6107d3826107b4565b848454610736565b825550505050565b600090565b6107f06107e3565b6107fb8184846107be565b505050565b5b8181101561081f576108146000826107e8565b600181019050610801565b5050565b601f8211156108645761083581610704565b61083e84610719565b8101602085101561084d578190505b61086161085985610719565b830182610800565b50505b505050565b600082821c905092915050565b600061088760001984600802610869565b1980831691505092915050565b60006108a08383610876565b9150826002028217905092915050565b6108b982610699565b67ffffffffffffffff8111156108d2576108d161033c565b5b6108dc82546106d3565b6108e7828285610823565b600060209050601f83116001811461091a5760008415610908578287015190505b6109128582610894565b86555061097a565b601f19841661092886610704565b60005b828110156109505784890151825560018201915060208501945060208101905061092b565b8683101561096d5784890151610969601f891682610876565b8355505b6001600288020188555050505b505050505050565b61098b81610509565b82525050565b60006020820190506109a66000830184610982565b92915050565b7f4e487b7100000000000000000000000000000000000000000000000000000000600052602160045260246000fd5b7f4e487b7100000000000000000000000000000000000000000000000000000000600052603260045260246000fd5b613d9180610a196000396000f3fe6080604052600436106101d15760003560e01c806370a08231116100f7578063b88d4fde11610095578063da610fcf11610064578063da610fcf14610658578063e985e9c514610683578063eddd0d9c146106c0578063f2fde38b146106e9576101d2565b8063b88d4fde146105ab578063c87b56dd146105d4578063d547cfb714610611578063da00d8411461063c576101d2565b80638da5cb5b116100d15780638da5cb5b1461051057806395d89b411461053b578063a22cb46514610566578063aaab16011461058f576101d2565b806370a0823114610493578063715018a6146104d05780637f649783146104e7576101d2565b806323b872dd1161016f57806351cff8d91161013e57806351cff8d9146103db578063548db1741461040457806355f804b31461042d5780636352211e14610456576101d2565b806323b872dd146103235780632e49d78b1461034c5780633af32abf1461037557806342842e0e146103b2576101d2565b8063081812fc116101ab578063081812fc14610267578063095ea7b3146102a457806318160ddd146102cd578063200d2ed2146102f8576101d2565b806301ffc9a7146101d4578063047fc9aa1461021157806306fdde031461023c576101d2565b5b005b3480156101e057600080fd5b506101fb60048036038101906101f691906127d9565b610712565b6040516102089190612821565b60405180910390f35b34801561021d57600080fd5b506102266107f4565b6040516102339190612855565b60405180910390f35b34801561024857600080fd5b506102516107fa565b60405161025e9190612900565b60405180910390f35b34801561027357600080fd5b5061028e6004803603810190610289919061294e565b61088c565b60405161029b91906129bc565b60405180910390f35b3480156102b057600080fd5b506102cb60048036038101906102c69190612a03565b6108a8565b005b3480156102d957600080fd5b506102e26108be565b6040516102ef9190612855565b60405180910390f35b34801561030457600080fd5b5061030d6108c8565b60405161031a9190612aba565b60405180910390f35b34801561032f57600080fd5b5061034a60048036038101906103459190612ad5565b6108db565b005b34801561035857600080fd5b50610373600480360381019061036e9190612b4d565b6109dd565b005b34801561038157600080fd5b5061039c60048036038101906103979190612b7a565b610a51565b6040516103a99190612821565b60405180910390f35b3480156103be57600080fd5b506103d960048036038101906103d49190612ad5565b610aa7565b005b3480156103e757600080fd5b5061040260048036038101906103fd9190612b7a565b610ac7565b005b34801561041057600080fd5b5061042b60048036038101906104269190612c0c565b610c31565b005b34801561043957600080fd5b50610454600480360381019061044f9190612caf565b610d6e565b005b34801561046257600080fd5b5061047d6004803603810190610478919061294e565b610dcf565b60405161048a91906129bc565b60405180910390f35b34801561049f57600080fd5b506104ba60048036038101906104b59190612b7a565b610de1565b6040516104c79190612855565b60405180910390f35b3480156104dc57600080fd5b506104e5610e9b565b005b3480156104f357600080fd5b5061050e60048036038101906105099190612c0c565b610eaf565b005b34801561051c57600080fd5b50610525611018565b60405161053291906129bc565b60405180910390f35b34801561054757600080fd5b50610550611042565b60405161055d9190612900565b60405180910390f35b34801561057257600080fd5b5061058d60048036038101906105889190612d28565b6110d4565b005b6105a960048036038101906105a49190612dbe565b6110ea565b005b3480156105b757600080fd5b506105d260048036038101906105cd9190612f4e565b6111fc565b005b3480156105e057600080fd5b506105fb60048036038101906105f6919061294e565b611221565b6040516106089190612900565b60405180910390f35b34801561061d57600080fd5b50610626611264565b6040516106339190612900565b60405180910390f35b61065660048036038101906106519190612dbe565b6112f2565b005b34801561066457600080fd5b5061066d611377565b60405161067a9190612855565b60405180910390f35b34801561068f57600080fd5b506106aa60048036038101906106a59190612fd1565b61137d565b6040516106b79190612821565b60405180910390f35b3480156106cc57600080fd5b506106e760048036038101906106e2919061294e565b611411565b005b3480156106f557600080fd5b50610710600480360381019061070b9190612b7a565b611450565b005b60007f80ac58cd000000000000000000000000000000000000000000000000000000007bffffffffffffffffffffffffffffffffffffffffffffffffffffffff1916827bffffffffffffffffffffffffffffffffffffffffffffffffffffffff191614806107dd57507f5b5e139f000000000000000000000000000000000000000000000000000000007bffffffffffffffffffffffffffffffffffffffffffffffffffffffff1916827bffffffffffffffffffffffffffffffffffffffffffffffffffffffff1916145b806107ed57506107ec826114d6565b5b9050919050565b60095481565b60606000805461080990613040565b80601f016020809104026020016040519081016040528092919081815260200182805461083590613040565b80156108825780601f1061085757610100808354040283529160200191610882565b820191906000526020600020905b81548152906001019060200180831161086557829003601f168201915b5050505050905090565b600061089782611540565b506108a1826115c8565b9050919050565b6108ba82826108b5611605565b61160d565b5050565b6000600954905090565b600660149054906101000a900460ff1681565b600073ffffffffffffffffffffffffffffffffffffffff168273ffffffffffffffffffffffffffffffffffffffff160361094d5760006040517f64a0ae9200000000000000000000000000000000000000000000000000000000815260040161094491906129bc565b60405180910390fd5b6000610961838361095c611605565b61161f565b90508373ffffffffffffffffffffffffffffffffffffffff168173ffffffffffffffffffffffffffffffffffffffff16146109d7578382826040517f64283d7b0000000000000000000000000000000000000000000000000000000081526004016109ce93929190613071565b60405180910390fd5b50505050565b6109e5611839565b80600660146101000a81548160ff02191690836002811115610a0a57610a09612a43565b5b0217905550806002811115610a2257610a21612a43565b5b7f7101a660456a4e2f94e6b0ccd3d6a034724e26130a817471aaf5a3de8fba384a60405160405180910390a250565b6000600a60008373ffffffffffffffffffffffffffffffffffffffff1673ffffffffffffffffffffffffffffffffffffffff16815260200190815260200160002060009054906101000a900460ff169050919050565b610ac2838383604051806020016040528060008152506111fc565b505050565b610acf611839565b600073ffffffffffffffffffffffffffffffffffffffff168173ffffffffffffffffffffffffffffffffffffffff1603610b3e576040517f08c379a0000000000000000000000000000000000000000000000000000000008152600401610b35906130f4565b60405180910390fd5b60004711610b81576040517f08c379a0000000000000000000000000000000000000000000000000000000008152600401610b7890613160565b60405180910390fd5b60008173ffffffffffffffffffffffffffffffffffffffff1647604051610ba7906131b1565b60006040518083038185875af1925050503d8060008114610be4576040519150601f19603f3d011682016040523d82523d6000602084013e610be9565b606091505b5050905080610c2d576040517f08c379a0000000000000000000000000000000000000000000000000000000008152600401610c2490613212565b60405180910390fd5b5050565b610c39611839565b60005b82829050811015610d6957600073ffffffffffffffffffffffffffffffffffffffff16838383818110610c7257610c71613232565b5b9050602002016020810190610c879190612b7a565b73ffffffffffffffffffffffffffffffffffffffff1603610cdd576040517f08c379a0000000000000000000000000000000000000000000000000000000008152600401610cd4906132d3565b60405180910390fd5b6000600a6000858585818110610cf657610cf5613232565b5b9050602002016020810190610d0b9190612b7a565b73ffffffffffffffffffffffffffffffffffffffff1673ffffffffffffffffffffffffffffffffffffffff16815260200190815260200160002060006101000a81548160ff0219169083151502179055508080600101915050610c3c565b505050565b610d76611839565b818160079182610d879291906134aa565b506007604051610d979190613608565b60405180910390207f6741b2fc379fad678116fe3d4d4b9a1a184ab53ba36b86ad0fa66340b1ab41ad60405160405180910390a25050565b6000610dda82611540565b9050919050565b60008073ffffffffffffffffffffffffffffffffffffffff168273ffffffffffffffffffffffffffffffffffffffff1603610e545760006040517f89c62b64000000000000000000000000000000000000000000000000000000008152600401610e4b91906129bc565b60405180910390fd5b600360008373ffffffffffffffffffffffffffffffffffffffff1673ffffffffffffffffffffffffffffffffffffffff168152602001908152602001600020549050919050565b610ea3611839565b610ead60006118c0565b565b610eb7611839565b60005b82829050811015610fe757600073ffffffffffffffffffffffffffffffffffffffff16838383818110610ef057610eef613232565b5b9050602002016020810190610f059190612b7a565b73ffffffffffffffffffffffffffffffffffffffff1603610f5b576040517f08c379a0000000000000000000000000000000000000000000000000000000008152600401610f52906132d3565b60405180910390fd5b6001600a6000858585818110610f7457610f73613232565b5b9050602002016020810190610f899190612b7a565b73ffffffffffffffffffffffffffffffffffffffff1673ffffffffffffffffffffffffffffffffffffffff16815260200190815260200160002060006101000a81548160ff0219169083151502179055508080600101915050610eba565b507f22f196d9cf5ab2abfb5e4f2e291a2452f5c28d88e99b62b74b9c6e62ab231a4460405160405180910390a15050565b6000600660009054906101000a900473ffffffffffffffffffffffffffffffffffffffff16905090565b60606001805461105190613040565b80601f016020809104026020016040519081016040528092919081815260200182805461107d90613040565b80156110ca5780601f1061109f576101008083540402835291602001916110ca565b820191906000526020600020905b8154815290600101906020018083116110ad57829003601f168201915b5050505050905090565b6110e66110df611605565b8383611986565b5050565b600160028111156110fe576110fd612a43565b5b600660149054906101000a900460ff1660028111156111205761111f612a43565b5b14611160576040517f08c379a000000000000000000000000000000000000000000000000000000000815260040161115790613691565b60405180910390fd5b600a60008473ffffffffffffffffffffffffffffffffffffffff1673ffffffffffffffffffffffffffffffffffffffff16815260200190815260200160002060009054906101000a900460ff166111ec576040517f08c379a00000000000000000000000000000000000000000000000000000000081526004016111e3906136fd565b60405180910390fd5b6111f7838383611af5565b505050565b6112078484846108db565b61121b611212611605565b85858585611cca565b50505050565b606061122c82611540565b50611235611e7b565b61123d6107fa565b60405160200161124e929190613774565b6040516020818303038152906040529050919050565b6007805461127190613040565b80601f016020809104026020016040519081016040528092919081815260200182805461129d90613040565b80156112ea5780601f106112bf576101008083540402835291602001916112ea565b820191906000526020600020905b8154815290600101906020018083116112cd57829003601f168201915b505050505081565b60028081111561130557611304612a43565b5b600660149054906101000a900460ff16600281111561132757611326612a43565b5b14611367576040517f08c379a000000000000000000000000000000000000000000000000000000000815260040161135e906137f3565b60405180910390fd5b611372838383611af5565b505050565b60085481565b6000600560008473ffffffffffffffffffffffffffffffffffffffff1673ffffffffffffffffffffffffffffffffffffffff16815260200190815260200160002060008373ffffffffffffffffffffffffffffffffffffffff1673ffffffffffffffffffffffffffffffffffffffff16815260200190815260200160002060009054906101000a900460ff16905092915050565b611419611839565b80600881905550807f38fbb1c8b109c430f0c030e7ed076cf5611a307773a4e8e365601e8f8bceaec660405160405180910390a250565b611458611839565b600073ffffffffffffffffffffffffffffffffffffffff168173ffffffffffffffffffffffffffffffffffffffff16036114ca5760006040517f1e4fbdf70000000000000000000000000000000000000000000000000000000081526004016114c191906129bc565b60405180910390fd5b6114d3816118c0565b50565b60007f01ffc9a7000000000000000000000000000000000000000000000000000000007bffffffffffffffffffffffffffffffffffffffffffffffffffffffff1916827bffffffffffffffffffffffffffffffffffffffffffffffffffffffff1916149050919050565b60008061154c83611f0d565b9050600073ffffffffffffffffffffffffffffffffffffffff168173ffffffffffffffffffffffffffffffffffffffff16036115bf57826040517f7e2732890000000000000000000000000000000000000000000000000000000081526004016115b69190612855565b60405180910390fd5b80915050919050565b60006004600083815260200190815260200160002060009054906101000a900473ffffffffffffffffffffffffffffffffffffffff169050919050565b600033905090565b61161a8383836001611f4a565b505050565b60008061162b84611f0d565b9050600073ffffffffffffffffffffffffffffffffffffffff168373ffffffffffffffffffffffffffffffffffffffff161461166d5761166c81848661210f565b5b600073ffffffffffffffffffffffffffffffffffffffff168173ffffffffffffffffffffffffffffffffffffffff16146116fe576116af600085600080611f4a565b6001600360008373ffffffffffffffffffffffffffffffffffffffff1673ffffffffffffffffffffffffffffffffffffffff168152602001908152602001600020600082825403925050819055505b600073ffffffffffffffffffffffffffffffffffffffff168573ffffffffffffffffffffffffffffffffffffffff1614611781576001600360008773ffffffffffffffffffffffffffffffffffffffff1673ffffffffffffffffffffffffffffffffffffffff168152602001908152602001600020600082825401925050819055505b846002600086815260200190815260200160002060006101000a81548173ffffffffffffffffffffffffffffffffffffffff021916908373ffffffffffffffffffffffffffffffffffffffff160217905550838573ffffffffffffffffffffffffffffffffffffffff168273ffffffffffffffffffffffffffffffffffffffff167fddf252ad1be2c89b69c2b068fc378daa952ba7f163c4a11628f55a4df523b3ef60405160405180910390a4809150509392505050565b611841611605565b73ffffffffffffffffffffffffffffffffffffffff1661185f611018565b73ffffffffffffffffffffffffffffffffffffffff16146118be57611882611605565b6040517f118cdaa70000000000000000000000000000000000000000000000000000000081526004016118b591906129bc565b60405180910390fd5b565b6000600660009054906101000a900473ffffffffffffffffffffffffffffffffffffffff16905081600660006101000a81548173ffffffffffffffffffffffffffffffffffffffff021916908373ffffffffffffffffffffffffffffffffffffffff1602179055508173ffffffffffffffffffffffffffffffffffffffff168173ffffffffffffffffffffffffffffffffffffffff167f8be0079c531659141344cd1fd0a4f28419497f9722a3daafe3b4186f6b6457e060405160405180910390a35050565b600073ffffffffffffffffffffffffffffffffffffffff168273ffffffffffffffffffffffffffffffffffffffff16036119f757816040517f5b08ba180000000000000000000000000000000000000000000000000000000081526004016119ee91906129bc565b60405180910390fd5b80600560008573ffffffffffffffffffffffffffffffffffffffff1673ffffffffffffffffffffffffffffffffffffffff16815260200190815260200160002060008473ffffffffffffffffffffffffffffffffffffffff1673ffffffffffffffffffffffffffffffffffffffff16815260200190815260200160002060006101000a81548160ff0219169083151502179055508173ffffffffffffffffffffffffffffffffffffffff168373ffffffffffffffffffffffffffffffffffffffff167f17307eab39ab6107e8899845ad3d59bd9653f200f220920489ca2b5937696c3183604051611ae89190612821565b60405180910390a3505050565b6000611b0084610de1565b14611b40576040517f08c379a0000000000000000000000000000000000000000000000000000000008152600401611b379061385f565b60405180910390fd5b611b4e8360095484846121d3565b611b8d576040517f08c379a0000000000000000000000000000000000000000000000000000000008152600401611b84906138cb565b60405180910390fd5b600854341015611bd2576040517f08c379a0000000000000000000000000000000000000000000000000000000008152600401611bc990613937565b60405180910390fd5b600073ffffffffffffffffffffffffffffffffffffffff168373ffffffffffffffffffffffffffffffffffffffff1603611c41576040517f08c379a0000000000000000000000000000000000000000000000000000000008152600401611c38906139c9565b60405180910390fd5b611c4d8360095461229d565b60096000815480929190611c6090613a18565b9190505550611c6d611042565b604051611c7a9190613a60565b60405180910390208373ffffffffffffffffffffffffffffffffffffffff167f4153c3ec0ff3b346ce667e78679d2445461021076ee0d737375b04dfea89472560405160405180910390a3505050565b60008373ffffffffffffffffffffffffffffffffffffffff163b1115611e74578273ffffffffffffffffffffffffffffffffffffffff1663150b7a02868685856040518563ffffffff1660e01b8152600401611d299493929190613acc565b6020604051808303816000875af1925050508015611d6557506040513d601f19601f82011682018060405250810190611d629190613b2d565b60015b611de9573d8060008114611d95576040519150601f19603f3d011682016040523d82523d6000602084013e611d9a565b606091505b506000815103611de157836040517f64a0ae92000000000000000000000000000000000000000000000000000000008152600401611dd891906129bc565b60405180910390fd5b805181602001fd5b63150b7a0260e01b7bffffffffffffffffffffffffffffffffffffffffffffffffffffffff1916817bffffffffffffffffffffffffffffffffffffffffffffffffffffffff191614611e7257836040517f64a0ae92000000000000000000000000000000000000000000000000000000008152600401611e6991906129bc565b60405180910390fd5b505b5050505050565b606060078054611e8a90613040565b80601f0160208091040260200160405190810160405280929190818152602001828054611eb690613040565b8015611f035780601f10611ed857610100808354040283529160200191611f03565b820191906000526020600020905b815481529060010190602001808311611ee657829003601f168201915b5050505050905090565b60006002600083815260200190815260200160002060009054906101000a900473ffffffffffffffffffffffffffffffffffffffff169050919050565b8080611f835750600073ffffffffffffffffffffffffffffffffffffffff168273ffffffffffffffffffffffffffffffffffffffff1614155b156120b7576000611f9384611540565b9050600073ffffffffffffffffffffffffffffffffffffffff168373ffffffffffffffffffffffffffffffffffffffff1614158015611ffe57508273ffffffffffffffffffffffffffffffffffffffff168173ffffffffffffffffffffffffffffffffffffffff1614155b8015612011575061200f818461137d565b155b1561205357826040517fa9fbf51f00000000000000000000000000000000000000000000000000000000815260040161204a91906129bc565b60405180910390fd5b81156120b557838573ffffffffffffffffffffffffffffffffffffffff168273ffffffffffffffffffffffffffffffffffffffff167f8c5be1e5ebec7d5bd14f71427d1e84f3dd0314c0f7b2291e5b200ac8c7c3b92560405160405180910390a45b505b836004600085815260200190815260200160002060006101000a81548173ffffffffffffffffffffffffffffffffffffffff021916908373ffffffffffffffffffffffffffffffffffffffff16021790555050505050565b61211a838383612396565b6121ce57600073ffffffffffffffffffffffffffffffffffffffff168373ffffffffffffffffffffffffffffffffffffffff160361218f57806040517f7e2732890000000000000000000000000000000000000000000000000000000081526004016121869190612855565b60405180910390fd5b81816040517f177e802f0000000000000000000000000000000000000000000000000000000081526004016121c5929190613b5a565b60405180910390fd5b505050565b60008084866040516020016121e9929190613c84565b604051602081830303815290604052805190602001209050600061220c82612457565b9050612216611018565b73ffffffffffffffffffffffffffffffffffffffff1661227a8287878080601f016020809104026020016040519081016040528093929190818152602001838380828437600081840152601f19601f8201169050808301925050505050505061248d565b73ffffffffffffffffffffffffffffffffffffffff161492505050949350505050565b600073ffffffffffffffffffffffffffffffffffffffff168273ffffffffffffffffffffffffffffffffffffffff160361230f5760006040517f64a0ae9200000000000000000000000000000000000000000000000000000000815260040161230691906129bc565b60405180910390fd5b600061231d8383600061161f565b9050600073ffffffffffffffffffffffffffffffffffffffff168173ffffffffffffffffffffffffffffffffffffffff16146123915760006040517f73c6ac6e00000000000000000000000000000000000000000000000000000000815260040161238891906129bc565b60405180910390fd5b505050565b60008073ffffffffffffffffffffffffffffffffffffffff168373ffffffffffffffffffffffffffffffffffffffff161415801561244e57508273ffffffffffffffffffffffffffffffffffffffff168473ffffffffffffffffffffffffffffffffffffffff16148061240f575061240e848461137d565b5b8061244d57508273ffffffffffffffffffffffffffffffffffffffff16612435836115c8565b73ffffffffffffffffffffffffffffffffffffffff16145b5b90509392505050565b60007f19457468657265756d205369676e6564204d6573736167653a0a33320000000060005281601c52603c6000209050919050565b60008060008061249d86866124b9565b9250925092506124ad8282612515565b82935050505092915050565b600080600060418451036124fe5760008060006020870151925060408701519150606087015160001a90506124f088828585612679565b95509550955050505061250e565b60006002855160001b9250925092505b9250925092565b6000600381111561252957612528612a43565b5b82600381111561253c5761253b612a43565b5b0315612675576001600381111561255657612555612a43565b5b82600381111561256957612568612a43565b5b036125a0576040517ff645eedf00000000000000000000000000000000000000000000000000000000815260040160405180910390fd5b600260038111156125b4576125b3612a43565b5b8260038111156125c7576125c6612a43565b5b0361260c578060001c6040517ffce698f70000000000000000000000000000000000000000000000000000000081526004016126039190612855565b60405180910390fd5b60038081111561261f5761261e612a43565b5b82600381111561263257612631612a43565b5b0361267457806040517fd78bce0c00000000000000000000000000000000000000000000000000000000815260040161266b9190613cdf565b60405180910390fd5b5b5050565b60008060007f7fffffffffffffffffffffffffffffff5d576e7357a4501ddfe92f46681b20a08460001c11156126b9576000600385925092509250612763565b6000600188888888604051600081526020016040526040516126de9493929190613d16565b6020604051602081039080840390855afa158015612700573d6000803e3d6000fd5b505050602060405103519050600073ffffffffffffffffffffffffffffffffffffffff168173ffffffffffffffffffffffffffffffffffffffff160361275457600060016000801b93509350935050612763565b8060008060001b935093509350505b9450945094915050565b6000604051905090565b600080fd5b600080fd5b60007fffffffff0000000000000000000000000000000000000000000000000000000082169050919050565b6127b681612781565b81146127c157600080fd5b50565b6000813590506127d3816127ad565b92915050565b6000602082840312156127ef576127ee612777565b5b60006127fd848285016127c4565b91505092915050565b60008115159050919050565b61281b81612806565b82525050565b60006020820190506128366000830184612812565b92915050565b6000819050919050565b61284f8161283c565b82525050565b600060208201905061286a6000830184612846565b92915050565b600081519050919050565b600082825260208201905092915050565b60005b838110156128aa57808201518184015260208101905061288f565b60008484015250505050565b6000601f19601f8301169050919050565b60006128d282612870565b6128dc818561287b565b93506128ec81856020860161288c565b6128f5816128b6565b840191505092915050565b6000602082019050818103600083015261291a81846128c7565b905092915050565b61292b8161283c565b811461293657600080fd5b50565b60008135905061294881612922565b92915050565b60006020828403121561296457612963612777565b5b600061297284828501612939565b91505092915050565b600073ffffffffffffffffffffffffffffffffffffffff82169050919050565b60006129a68261297b565b9050919050565b6129b68161299b565b82525050565b60006020820190506129d160008301846129ad565b92915050565b6129e08161299b565b81146129eb57600080fd5b50565b6000813590506129fd816129d7565b92915050565b60008060408385031215612a1a57612a19612777565b5b6000612a28858286016129ee565b9250506020612a3985828601612939565b9150509250929050565b7f4e487b7100000000000000000000000000000000000000000000000000000000600052602160045260246000fd5b60038110612a8357612a82612a43565b5b50565b6000819050612a9482612a72565b919050565b6000612aa482612a86565b9050919050565b612ab481612a99565b82525050565b6000602082019050612acf6000830184612aab565b92915050565b600080600060608486031215612aee57612aed612777565b5b6000612afc868287016129ee565b9350506020612b0d868287016129ee565b9250506040612b1e86828701612939565b9150509250925092565b60038110612b3557600080fd5b50565b600081359050612b4781612b28565b92915050565b600060208284031215612b6357612b62612777565b5b6000612b7184828501612b38565b91505092915050565b600060208284031215612b9057612b8f612777565b5b6000612b9e848285016129ee565b91505092915050565b600080fd5b600080fd5b600080fd5b60008083601f840112612bcc57612bcb612ba7565b5b8235905067ffffffffffffffff811115612be957612be8612bac565b5b602083019150836020820283011115612c0557612c04612bb1565b5b9250929050565b60008060208385031215612c2357612c22612777565b5b600083013567ffffffffffffffff811115612c4157612c4061277c565b5b612c4d85828601612bb6565b92509250509250929050565b60008083601f840112612c6f57612c6e612ba7565b5b8235905067ffffffffffffffff811115612c8c57612c8b612bac565b5b602083019150836001820283011115612ca857612ca7612bb1565b5b9250929050565b60008060208385031215612cc657612cc5612777565b5b600083013567ffffffffffffffff811115612ce457612ce361277c565b5b612cf085828601612c59565b92509250509250929050565b612d0581612806565b8114612d1057600080fd5b50565b600081359050612d2281612cfc565b92915050565b60008060408385031215612d3f57612d3e612777565b5b6000612d4d858286016129ee565b9250506020612d5e85828601612d13565b9150509250929050565b60008083601f840112612d7e57612d7d612ba7565b5b8235905067ffffffffffffffff811115612d9b57612d9a612bac565b5b602083019150836001820283011115612db757612db6612bb1565b5b9250929050565b600080600060408486031215612dd757612dd6612777565b5b6000612de5868287016129ee565b935050602084013567ffffffffffffffff811115612e0657612e0561277c565b5b612e1286828701612d68565b92509250509250925092565b600080fd5b7f4e487b7100000000000000000000000000000000000000000000000000000000600052604160045260246000fd5b612e5b826128b6565b810181811067ffffffffffffffff82111715612e7a57612e79612e23565b5b80604052505050565b6000612e8d61276d565b9050612e998282612e52565b919050565b600067ffffffffffffffff821115612eb957612eb8612e23565b5b612ec2826128b6565b9050602081019050919050565b82818337600083830152505050565b6000612ef1612eec84612e9e565b612e83565b905082815260208101848484011115612f0d57612f0c612e1e565b5b612f18848285612ecf565b509392505050565b600082601f830112612f3557612f34612ba7565b5b8135612f45848260208601612ede565b91505092915050565b60008060008060808587031215612f6857612f67612777565b5b6000612f76878288016129ee565b9450506020612f87878288016129ee565b9350506040612f9887828801612939565b925050606085013567ffffffffffffffff811115612fb957612fb861277c565b5b612fc587828801612f20565b91505092959194509250565b60008060408385031215612fe857612fe7612777565b5b6000612ff6858286016129ee565b9250506020613007858286016129ee565b9150509250929050565b7f4e487b7100000000000000000000000000000000000000000000000000000000600052602260045260246000fd5b6000600282049050600182168061305857607f821691505b60208210810361306b5761306a613011565b5b50919050565b600060608201905061308660008301866129ad565b6130936020830185612846565b6130a060408301846129ad565b949350505050565b7f43616e6e6f7420776974686472617720746f207a65726f206164647265737321600082015250565b60006130de60208361287b565b91506130e9826130a8565b602082019050919050565b6000602082019050818103600083015261310d816130d1565b9050919050565b7f4e6f2062616c616e636520746f20776974686472617721000000000000000000600082015250565b600061314a60178361287b565b915061315582613114565b602082019050919050565b600060208201905081810360008301526131798161313d565b9050919050565b600081905092915050565b50565b600061319b600083613180565b91506131a68261318b565b600082019050919050565b60006131bc8261318e565b9150819050919050565b7f5472616e73666572206661696c65642e00000000000000000000000000000000600082015250565b60006131fc60108361287b565b9150613207826131c6565b602082019050919050565b6000602082019050818103600083015261322b816131ef565b9050919050565b7f4e487b7100000000000000000000000000000000000000000000000000000000600052603260045260246000fd5b7f43616e6e6f7420616464207a65726f206164647265737320746f20776869746560008201527f6c69737421000000000000000000000000000000000000000000000000000000602082015250565b60006132bd60258361287b565b91506132c882613261565b604082019050919050565b600060208201905081810360008301526132ec816132b0565b9050919050565b600082905092915050565b60008190508160005260206000209050919050565b60006020601f8301049050919050565b600082821b905092915050565b6000600883026133607fffffffffffffffffffffffffffffffffffffffffffffffffffffffffffffffff82613323565b61336a8683613323565b95508019841693508086168417925050509392505050565b6000819050919050565b60006133a76133a261339d8461283c565b613382565b61283c565b9050919050565b6000819050919050565b6133c18361338c565b6133d56133cd826133ae565b848454613330565b825550505050565b600090565b6133ea6133dd565b6133f58184846133b8565b505050565b5b818110156134195761340e6000826133e2565b6001810190506133fb565b5050565b601f82111561345e5761342f816132fe565b61343884613313565b81016020851015613447578190505b61345b61345385613313565b8301826133fa565b50505b505050565b600082821c905092915050565b600061348160001984600802613463565b1980831691505092915050565b600061349a8383613470565b9150826002028217905092915050565b6134b483836132f3565b67ffffffffffffffff8111156134cd576134cc612e23565b5b6134d78254613040565b6134e282828561341d565b6000601f83116001811461351157600084156134ff578287013590505b613509858261348e565b865550613571565b601f19841661351f866132fe565b60005b8281101561354757848901358255600182019150602085019450602081019050613522565b868310156135645784890135613560601f891682613470565b8355505b6001600288020188555050505b50505050505050565b600081905092915050565b6000815461359281613040565b61359c818661357a565b945060018216600081146135b757600181146135cc576135ff565b60ff19831686528115158202860193506135ff565b6135d5856132fe565b60005b838110156135f7578154818901526001820191506020810190506135d8565b838801955050505b50505092915050565b60006136148284613585565b915081905092915050565b7f4d696e74696e67206e6f7420616c6c6f77656420666f722077686974656c697360008201527f7465642100000000000000000000000000000000000000000000000000000000602082015250565b600061367b60248361287b565b91506136868261361f565b604082019050919050565b600060208201905081810360008301526136aa8161366e565b9050919050565b7f526563697069656e74206e6f742077686974656c697374656421000000000000600082015250565b60006136e7601a8361287b565b91506136f2826136b1565b602082019050919050565b60006020820190508181036000830152613716816136da565b9050919050565b600061372882612870565b613732818561357a565b935061374281856020860161288c565b80840191505092915050565b7f5f53686172642e6a736f6e000000000000000000000000000000000000000000815250565b6000613780828561371d565b915061378c828461371d565b91506137978261374e565b600b820191508190509392505050565b7f4d696e74696e67206e6f7420616c6c6f77656420666f72207075626c69632100600082015250565b60006137dd601f8361287b565b91506137e8826137a7565b602082019050919050565b6000602082019050818103600083015261380c816137d0565b9050919050565b7f526563697069656e7420616c7265616479206d696e7465642100000000000000600082015250565b600061384960198361287b565b915061385482613813565b602082019050919050565b600060208201905081810360008301526138788161383c565b9050919050565b7f4e6f7420617574686f72697a6564210000000000000000000000000000000000600082015250565b60006138b5600f8361287b565b91506138c08261387f565b602082019050919050565b600060208201905081810360008301526138e4816138a8565b9050919050565b7f4e6f7420656e6f7567682066656520666f72206d696e74696e67210000000000600082015250565b6000613921601b8361287b565b915061392c826138eb565b602082019050919050565b6000602082019050818103600083015261395081613914565b9050919050565b7f526563697069656e742063616e6e6f74206265207a65726f206164647265737360008201527f2100000000000000000000000000000000000000000000000000000000000000602082015250565b60006139b360218361287b565b91506139be82613957565b604082019050919050565b600060208201905081810360008301526139e2816139a6565b9050919050565b7f4e487b7100000000000000000000000000000000000000000000000000000000600052601160045260246000fd5b6000613a238261283c565b91507fffffffffffffffffffffffffffffffffffffffffffffffffffffffffffffffff8203613a5557613a546139e9565b5b600182019050919050565b6000613a6c828461371d565b915081905092915050565b600081519050919050565b600082825260208201905092915050565b6000613a9e82613a77565b613aa88185613a82565b9350613ab881856020860161288c565b613ac1816128b6565b840191505092915050565b6000608082019050613ae160008301876129ad565b613aee60208301866129ad565b613afb6040830185612846565b8181036060830152613b0d8184613a93565b905095945050505050565b600081519050613b27816127ad565b92915050565b600060208284031215613b4357613b42612777565b5b6000613b5184828501613b18565b91505092915050565b6000604082019050613b6f60008301856129ad565b613b7c6020830184612846565b9392505050565b7f546f6b656e2049443a2000000000000000000000000000000000000000000000600082015250565b6000613bb9600a8361357a565b9150613bc482613b83565b600a82019050919050565b6000819050919050565b613bea613be58261283c565b613bcf565b82525050565b7f526563697069656e743a20000000000000000000000000000000000000000000600082015250565b6000613c26600b8361357a565b9150613c3182613bf0565b600b82019050919050565b60008160601b9050919050565b6000613c5482613c3c565b9050919050565b6000613c6682613c49565b9050919050565b613c7e613c798261299b565b613c5b565b82525050565b6000613c8f82613bac565b9150613c9b8285613bd9565b602082019150613caa82613c19565b9150613cb68284613c6d565b6014820191508190509392505050565b6000819050919050565b613cd981613cc6565b82525050565b6000602082019050613cf46000830184613cd0565b92915050565b600060ff82169050919050565b613d1081613cfa565b82525050565b6000608082019050613d2b6000830187613cd0565b613d386020830186613d07565b613d456040830185613cd0565b613d526060830184613cd0565b9594505050505056fea264697066735822122059d7cf3af71c2daf5809fc3b4ba77f1cef880dbfa8f8ef0d24fef9df361ce6ac64736f6c634300081c0033",
  "linkReferences": {},
  "deployedLinkReferences": {}
}