{
  "_format": "hh-sol-artifact-1",
  "contractName": "GrandPuzzlePiece",
  "sourceName": "contracts/GrandPuzzlePiece.sol",
  "abi": [
    {
      "inputs": [
        {
          "internalType": "string",
          "name": "_name",
          "type": "string"
        },
        {
          "internalType": "string",
          "name": "_symbol",
          "type": "string"
        },
        {
          "internalType": "uint256",
          "name": "_mint_fee",
          "type": "uint256"
        },
        {
          "internalType": "address[]",
          "name": "_whitelisted_addresses",
          "type": "address[]"
        },
        {
          "internalType": "string",
          "name": "_base_uri",
          "type": "string"
        }
      ],
      "stateMutability": "nonpayable",
      "type": "constructor"
    },
    {
      "inputs": [],
      "name": "ECDSAInvalidSignature",
      "type": "error"
    },
    {
      "inputs": [
        {
          "internalType": "uint256",
          "name": "length",
          "type": "uint256"
        }
      ],
      "name": "ECDSAInvalidSignatureLength",
      "type": "error"
    },
    {
      "inputs": [
        {
          "internalType": "bytes32",
          "name": "s",
          "type": "bytes32"
        }
      ],
      "name": "ECDSAInvalidSignatureS",
      "type": "error"
    },
    {
      "inputs": [
        {
          "internalType": "address",
          "name": "sender",
          "type": "address"
        },
        {
          "internalType": "uint256",
          "name": "tokenId",
          "type": "uint256"
        },
        {
          "internalType": "address",
          "name": "owner",
          "type": "address"
        }
      ],
      "name": "ERC721IncorrectOwner",
      "type": "error"
    },
    {
      "inputs": [
        {
          "internalType": "address",
          "name": "operator",
          "type": "address"
        },
        {
          "internalType": "uint256",
          "name": "tokenId",
          "type": "uint256"
        }
      ],
      "name": "ERC721InsufficientApproval",
      "type": "error"
    },
    {
      "inputs": [
        {
          "internalType": "address",
          "name": "approver",
          "type": "address"
        }
      ],
      "name": "ERC721InvalidApprover",
      "type": "error"
    },
    {
      "inputs": [
        {
          "internalType": "address",
          "name": "operator",
          "type": "address"
        }
      ],
      "name": "ERC721InvalidOperator",
      "type": "error"
    },
    {
      "inputs": [
        {
          "internalType": "address",
          "name": "owner",
          "type": "address"
        }
      ],
      "name": "ERC721InvalidOwner",
      "type": "error"
    },
    {
      "inputs": [
        {
          "internalType": "address",
          "name": "receiver",
          "type": "address"
        }
      ],
      "name": "ERC721InvalidReceiver",
      "type": "error"
    },
    {
      "inputs": [
        {
          "internalType": "address",
          "name": "sender",
          "type": "address"
        }
      ],
      "name": "ERC721InvalidSender",
      "type": "error"
    },
    {
      "inputs": [
        {
          "internalType": "uint256",
          "name": "tokenId",
          "type": "uint256"
        }
      ],
      "name": "ERC721NonexistentToken",
      "type": "error"
    },
    {
      "inputs": [
        {
          "internalType": "address",
          "name": "owner",
          "type": "address"
        }
      ],
      "name": "OwnableInvalidOwner",
      "type": "error"
    },
    {
      "inputs": [
        {
          "internalType": "address",
          "name": "account",
          "type": "address"
        }
      ],
      "name": "OwnableUnauthorizedAccount",
      "type": "error"
    },
    {
      "anonymous": false,
      "inputs": [
        {
          "indexed": true,
          "internalType": "address",
          "name": "owner",
          "type": "address"
        },
        {
          "indexed": true,
          "internalType": "address",
          "name": "approved",
          "type": "address"
        },
        {
          "indexed": true,
          "internalType": "uint256",
          "name": "tokenId",
          "type": "uint256"
        }
      ],
      "name": "Approval",
      "type": "event"
    },
    {
      "anonymous": false,
      "inputs": [
        {
          "indexed": true,
          "internalType": "address",
          "name": "owner",
          "type": "address"
        },
        {
          "indexed": true,
          "internalType": "address",
          "name": "operator",
          "type": "address"
        },
        {
          "indexed": false,
          "internalType": "bool",
          "name": "approved",
          "type": "bool"
        }
      ],
      "name": "ApprovalForAll",
      "type": "event"
    },
    {
      "anonymous": false,
      "inputs": [
        {
          "indexed": true,
          "internalType": "string",
          "name": "_baseTokenURI",
          "type": "string"
        }
      ],
      "name": "BaseURIUpdated",
      "type": "event"
    },
    {
      "anonymous": false,
      "inputs": [
        {
          "indexed": true,
          "internalType": "address",
          "name": "_recipient",
          "type": "address"
        },
        {
          "indexed": true,
          "internalType": "string",
          "name": "_mission_symbol",
          "type": "string"
        }
      ],
      "name": "FinishedMission",
      "type": "event"
    },
    {
      "anonymous": false,
      "inputs": [
        {
          "indexed": true,
          "internalType": "uint256",
          "name": "_new_fee",
          "type": "uint256"
        }
      ],
      "name": "MintFeeUpdated",
      "type": "event"
    },
    {
      "anonymous": false,
      "inputs": [
        {
          "indexed": true,
          "internalType": "address",
          "name": "previousOwner",
          "type": "address"
        },
        {
          "indexed": true,
          "internalType": "address",
          "name": "newOwner",
          "type": "address"
        }
      ],
      "name": "OwnershipTransferred",
      "type": "event"
    },
    {
      "anonymous": false,
      "inputs": [
        {
          "indexed": true,
          "internalType": "enum GrandPuzzlePiece.MissionStatus",
          "name": "_status",
          "type": "uint8"
        }
      ],
      "name": "StatusUpdated",
      "type": "event"
    },
    {
      "anonymous": false,
      "inputs": [
        {
          "indexed": true,
          "internalType": "address",
          "name": "from",
          "type": "address"
        },
        {
          "indexed": true,
          "internalType": "address",
          "name": "to",
          "type": "address"
        },
        {
          "indexed": true,
          "internalType": "uint256",
          "name": "tokenId",
          "type": "uint256"
        }
      ],
      "name": "Transfer",
      "type": "event"
    },
    {
      "anonymous": false,
      "inputs": [],
      "name": "WhitelistUpdated",
      "type": "event"
    },
    {
      "stateMutability": "payable",
      "type": "fallback"
    },
    {
      "inputs": [
        {
          "internalType": "address[]",
          "name": "_addresses",
          "type": "address[]"
        }
      ],
      "name": "addToWhitelist",
      "outputs": [],
      "stateMutability": "nonpayable",
      "type": "function"
    },
    {
      "inputs": [
        {
          "internalType": "address",
          "name": "to",
          "type": "address"
        },
        {
          "internalType": "uint256",
          "name": "tokenId",
          "type": "uint256"
        }
      ],
      "name": "approve",
      "outputs": [],
      "stateMutability": "nonpayable",
      "type": "function"
    },
    {
      "inputs": [
        {
          "internalType": "address",
          "name": "owner",
          "type": "address"
        }
      ],
      "name": "balanceOf",
      "outputs": [
        {
          "internalType": "uint256",
          "name": "",
          "type": "uint256"
        }
      ],
      "stateMutability": "view",
      "type": "function"
    },
    {
      "inputs": [],
      "name": "baseTokenURI",
      "outputs": [
        {
          "internalType": "string",
          "name": "",
          "type": "string"
        }
      ],
      "stateMutability": "view",
      "type": "function"
    },
    {
      "inputs": [
        {
          "internalType": "uint256",
          "name": "tokenId",
          "type": "uint256"
        }
      ],
      "name": "getApproved",
      "outputs": [
        {
          "internalType": "address",
          "name": "",
          "type": "address"
        }
      ],
      "stateMutability": "view",
      "type": "function"
    },
    {
      "inputs": [
        {
          "internalType": "address",
          "name": "owner",
          "type": "address"
        },
        {
          "internalType": "address",
          "name": "operator",
          "type": "address"
        }
      ],
      "name": "isApprovedForAll",
      "outputs": [
        {
          "internalType": "bool",
          "name": "",
          "type": "bool"
        }
      ],
      "stateMutability": "view",
      "type": "function"
    },
    {
      "inputs": [
        {
          "internalType": "address",
          "name": "user",
          "type": "address"
        }
      ],
      "name": "isWhitelisted",
      "outputs": [
        {
          "internalType": "bool",
          "name": "",
          "type": "bool"
        }
      ],
      "stateMutability": "view",
      "type": "function"
    },
    {
      "inputs": [],
      "name": "mint_fee",
      "outputs": [
        {
          "internalType": "uint256",
          "name": "",
          "type": "uint256"
        }
      ],
      "stateMutability": "view",
      "type": "function"
    },
    {
      "inputs": [],
      "name": "name",
      "outputs": [
        {
          "internalType": "string",
          "name": "",
          "type": "string"
        }
      ],
      "stateMutability": "view",
      "type": "function"
    },
    {
      "inputs": [],
      "name": "owner",
      "outputs": [
        {
          "internalType": "address",
          "name": "",
          "type": "address"
        }
      ],
      "stateMutability": "view",
      "type": "function"
    },
    {
      "inputs": [
        {
          "internalType": "uint256",
          "name": "tokenId",
          "type": "uint256"
        }
      ],
      "name": "ownerOf",
      "outputs": [
        {
          "internalType": "address",
          "name": "",
          "type": "address"
        }
      ],
      "stateMutability": "view",
      "type": "function"
    },
    {
      "inputs": [
        {
          "internalType": "address",
          "name": "_recipient",
          "type": "address"
        },
        {
          "internalType": "bytes",
          "name": "_signature",
          "type": "bytes"
        }
      ],
      "name": "publicMintPuzzlePiece",
      "outputs": [],
      "stateMutability": "payable",
      "type": "function"
    },
    {
      "inputs": [
        {
          "internalType": "address[]",
          "name": "_addresses",
          "type": "address[]"
        }
      ],
      "name": "removeFromWhitelist",
      "outputs": [],
      "stateMutability": "nonpayable",
      "type": "function"
    },
    {
      "inputs": [],
      "name": "renounceOwnership",
      "outputs": [],
      "stateMutability": "nonpayable",
      "type": "function"
    },
    {
      "inputs": [
        {
          "internalType": "address",
          "name": "from",
          "type": "address"
        },
        {
          "internalType": "address",
          "name": "to",
          "type": "address"
        },
        {
          "internalType": "uint256",
          "name": "tokenId",
          "type": "uint256"
        }
      ],
      "name": "safeTransferFrom",
      "outputs": [],
      "stateMutability": "nonpayable",
      "type": "function"
    },
    {
      "inputs": [
        {
          "internalType": "address",
          "name": "from",
          "type": "address"
        },
        {
          "internalType": "address",
          "name": "to",
          "type": "address"
        },
        {
          "internalType": "uint256",
          "name": "tokenId",
          "type": "uint256"
        },
        {
          "internalType": "bytes",
          "name": "data",
          "type": "bytes"
        }
      ],
      "name": "safeTransferFrom",
      "outputs": [],
      "stateMutability": "nonpayable",
      "type": "function"
    },
    {
      "inputs": [
        {
          "internalType": "address",
          "name": "operator",
          "type": "address"
        },
        {
          "internalType": "bool",
          "name": "approved",
          "type": "bool"
        }
      ],
      "name": "setApprovalForAll",
      "outputs": [],
      "stateMutability": "nonpayable",
      "type": "function"
    },
    {
      "inputs": [
        {
          "internalType": "string",
          "name": "_baseTokenURI",
          "type": "string"
        }
      ],
      "name": "setBaseURI",
      "outputs": [],
      "stateMutability": "nonpayable",
      "type": "function"
    },
    {
      "inputs": [
        {
          "internalType": "uint256",
          "name": "_new_fee",
          "type": "uint256"
        }
      ],
      "name": "setMintFee",
      "outputs": [],
      "stateMutability": "nonpayable",
      "type": "function"
    },
    {
      "inputs": [
        {
          "internalType": "enum GrandPuzzlePiece.MissionStatus",
          "name": "_status",
          "type": "uint8"
        }
      ],
      "name": "setStatus",
      "outputs": [],
      "stateMutability": "nonpayable",
      "type": "function"
    },
    {
      "inputs": [],
      "name": "status",
      "outputs": [
        {
          "internalType": "enum GrandPuzzlePiece.MissionStatus",
          "name": "",
          "type": "uint8"
        }
      ],
      "stateMutability": "view",
      "type": "function"
    },
    {
      "inputs": [],
      "name": "supply",
      "outputs": [
        {
          "internalType": "uint256",
          "name": "",
          "type": "uint256"
        }
      ],
      "stateMutability": "view",
      "type": "function"
    },
    {
      "inputs": [
        {
          "internalType": "bytes4",
          "name": "interfaceId",
          "type": "bytes4"
        }
      ],
      "name": "supportsInterface",
      "outputs": [
        {
          "internalType": "bool",
          "name": "",
          "type": "bool"
        }
      ],
      "stateMutability": "view",
      "type": "function"
    },
    {
      "inputs": [],
      "name": "symbol",
      "outputs": [
        {
          "internalType": "string",
          "name": "",
          "type": "string"
        }
      ],
      "stateMutability": "view",
      "type": "function"
    },
    {
      "inputs": [
        {
          "internalType": "uint256",
          "name": "tokenId",
          "type": "uint256"
        }
      ],
      "name": "tokenURI",
      "outputs": [
        {
          "internalType": "string",
          "name": "",
          "type": "string"
        }
      ],
      "stateMutability": "view",
      "type": "function"
    },
    {
      "inputs": [],
      "name": "totalSupply",
      "outputs": [
        {
          "internalType": "uint256",
          "name": "",
          "type": "uint256"
        }
      ],
      "stateMutability": "view",
      "type": "function"
    },
    {
      "inputs": [
        {
          "internalType": "address",
          "name": "from",
          "type": "address"
        },
        {
          "internalType": "address",
          "name": "to",
          "type": "address"
        },
        {
          "internalType": "uint256",
          "name": "tokenId",
          "type": "uint256"
        }
      ],
      "name": "transferFrom",
      "outputs": [],
      "stateMutability": "nonpayable",
      "type": "function"
    },
    {
      "inputs": [
        {
          "internalType": "address",
          "name": "newOwner",
          "type": "address"
        }
      ],
      "name": "transferOwnership",
      "outputs": [],
      "stateMutability": "nonpayable",
      "type": "function"
    },
    {
      "inputs": [
        {
          "internalType": "address",
          "name": "_recipient",
          "type": "address"
        },
        {
          "internalType": "bytes",
          "name": "_signature",
          "type": "bytes"
        }
      ],
      "name": "whitelistMintPuzzlePiece",
      "outputs": [],
      "stateMutability": "payable",
      "type": "function"
    },
    {
      "inputs": [
        {
          "internalType": "address",
          "name": "_to",
          "type": "address"
        }
      ],
      "name": "withdraw",
      "outputs": [],
      "stateMutability": "nonpayable",
      "type": "function"
    },
    {
      "stateMutability": "payable",
      "type": "receive"
    }
  ],
  "bytecode": "0x608060405234801561001057600080fd5b506040516149f93803806149f98339818101604052810190610032919061071d565b33858581600090816100449190610a1f565b5080600190816100549190610a1f565b505050600073ffffffffffffffffffffffffffffffffffffffff168173ffffffffffffffffffffffffffffffffffffffff16036100c95760006040517f1e4fbdf70000000000000000000000000000000000000000000000000000000081526004016100c09190610b00565b60405180910390fd5b6100d88161025760201b60201c565b506000600660146101000a81548160ff021916908360028111156100ff576100fe610b1b565b5b02179055508260088190555060005b8251811015610196576001600a60008584815181106101305761012f610b4a565b5b602002602001015173ffffffffffffffffffffffffffffffffffffffff1673ffffffffffffffffffffffffffffffffffffffff16815260200190815260200160002060006101000a81548160ff021916908315150217905550808060010191505061010e565b506101a68161031d60201b60201c565b827f38fbb1c8b109c430f0c030e7ed076cf5611a307773a4e8e365601e8f8bceaec660405160405180910390a2600660149054906101000a900460ff1660028111156101f5576101f4610b1b565b5b7f7101a660456a4e2f94e6b0ccd3d6a034724e26130a817471aaf5a3de8fba384a60405160405180910390a27f22f196d9cf5ab2abfb5e4f2e291a2452f5c28d88e99b62b74b9c6e62ab231a4460405160405180910390a15050505050610c1e565b6000600660009054906101000a900473ffffffffffffffffffffffffffffffffffffffff16905081600660006101000a81548173ffffffffffffffffffffffffffffffffffffffff021916908373ffffffffffffffffffffffffffffffffffffffff1602179055508173ffffffffffffffffffffffffffffffffffffffff168173ffffffffffffffffffffffffffffffffffffffff167f8be0079c531659141344cd1fd0a4f28419497f9722a3daafe3b4186f6b6457e060405160405180910390a35050565b61032b61038160201b60201c565b806007908161033a9190610a1f565b50600760405161034a9190610c07565b60405180910390207f6741b2fc379fad678116fe3d4d4b9a1a184ab53ba36b86ad0fa66340b1ab41ad60405160405180910390a250565b61038f61041a60201b60201c565b73ffffffffffffffffffffffffffffffffffffffff166103b361042260201b60201c565b73ffffffffffffffffffffffffffffffffffffffff1614610418576103dc61041a60201b60201c565b6040517f118cdaa700000000000000000000000000000000000000000000000000000000815260040161040f9190610b00565b60405180910390fd5b565b600033905090565b6000600660009054906101000a900473ffffffffffffffffffffffffffffffffffffffff16905090565b6000604051905090565b600080fd5b600080fd5b600080fd5b600080fd5b6000601f19601f8301169050919050565b7f4e487b7100000000000000000000000000000000000000000000000000000000600052604160045260246000fd5b6104b38261046a565b810181811067ffffffffffffffff821117156104d2576104d161047b565b5b80604052505050565b60006104e561044c565b90506104f182826104aa565b919050565b600067ffffffffffffffff8211156105115761051061047b565b5b61051a8261046a565b9050602081019050919050565b60005b8381101561054557808201518184015260208101905061052a565b60008484015250505050565b600061056461055f846104f6565b6104db565b9050828152602081018484840111156105805761057f610465565b5b61058b848285610527565b509392505050565b600082601f8301126105a8576105a7610460565b5b81516105b8848260208601610551565b91505092915050565b6000819050919050565b6105d4816105c1565b81146105df57600080fd5b50565b6000815190506105f1816105cb565b92915050565b600067ffffffffffffffff8211156106125761061161047b565b5b602082029050602081019050919050565b600080fd5b600073ffffffffffffffffffffffffffffffffffffffff82169050919050565b600061065382610628565b9050919050565b61066381610648565b811461066e57600080fd5b50565b6000815190506106808161065a565b92915050565b6000610699610694846105f7565b6104db565b905080838252602082019050602084028301858111156106bc576106bb610623565b5b835b818110156106e557806106d18882610671565b8452602084019350506020810190506106be565b5050509392505050565b600082601f83011261070457610703610460565b5b8151610714848260208601610686565b91505092915050565b600080600080600060a0868803121561073957610738610456565b5b600086015167ffffffffffffffff8111156107575761075661045b565b5b61076388828901610593565b955050602086015167ffffffffffffffff8111156107845761078361045b565b5b61079088828901610593565b94505060406107a1888289016105e2565b935050606086015167ffffffffffffffff8111156107c2576107c161045b565b5b6107ce888289016106ef565b925050608086015167ffffffffffffffff8111156107ef576107ee61045b565b5b6107fb88828901610593565b9150509295509295909350565b600081519050919050565b7f4e487b7100000000000000000000000000000000000000000000000000000000600052602260045260246000fd5b6000600282049050600182168061085a57607f821691505b60208210810361086d5761086c610813565b5b50919050565b60008190508160005260206000209050919050565b60006020601f8301049050919050565b600082821b905092915050565b6000600883026108d57fffffffffffffffffffffffffffffffffffffffffffffffffffffffffffffffff82610898565b6108df8683610898565b95508019841693508086168417925050509392505050565b6000819050919050565b600061091c610917610912846105c1565b6108f7565b6105c1565b9050919050565b6000819050919050565b61093683610901565b61094a61094282610923565b8484546108a5565b825550505050565b600090565b61095f610952565b61096a81848461092d565b505050565b5b8181101561098e57610983600082610957565b600181019050610970565b5050565b601f8211156109d3576109a481610873565b6109ad84610888565b810160208510156109bc578190505b6109d06109c885610888565b83018261096f565b50505b505050565b600082821c905092915050565b60006109f6600019846008026109d8565b1980831691505092915050565b6000610a0f83836109e5565b9150826002028217905092915050565b610a2882610808565b67ffffffffffffffff811115610a4157610a4061047b565b5b610a4b8254610842565b610a56828285610992565b600060209050601f831160018114610a895760008415610a77578287015190505b610a818582610a03565b865550610ae9565b601f198416610a9786610873565b60005b82811015610abf57848901518255600182019150602085019450602081019050610a9a565b86831015610adc5784890151610ad8601f8916826109e5565b8355505b6001600288020188555050505b505050505050565b610afa81610648565b82525050565b6000602082019050610b156000830184610af1565b92915050565b7f4e487b7100000000000000000000000000000000000000000000000000000000600052602160045260246000fd5b7f4e487b7100000000000000000000000000000000000000000000000000000000600052603260045260246000fd5b600081905092915050565b60008154610b9181610842565b610b9b8186610b79565b94506001821660008114610bb65760018114610bcb57610bfe565b60ff1983168652811515820286019350610bfe565b610bd485610873565b60005b83811015610bf657815481890152600182019150602081019050610bd7565b838801955050505b50505092915050565b6000610c138284610b84565b915081905092915050565b613dcc80610c2d6000396000f3fe6080604052600436106101d15760003560e01c806370a08231116100f7578063b88d4fde11610095578063da610fcf11610064578063da610fcf14610658578063e985e9c514610683578063eddd0d9c146106c0578063f2fde38b146106e9576101d2565b8063b88d4fde146105ab578063c87b56dd146105d4578063d547cfb714610611578063da00d8411461063c576101d2565b80638da5cb5b116100d15780638da5cb5b1461051057806395d89b411461053b578063a22cb46514610566578063aaab16011461058f576101d2565b806370a0823114610493578063715018a6146104d05780637f649783146104e7576101d2565b806323b872dd1161016f57806351cff8d91161013e57806351cff8d9146103db578063548db1741461040457806355f804b31461042d5780636352211e14610456576101d2565b806323b872dd146103235780632e49d78b1461034c5780633af32abf1461037557806342842e0e146103b2576101d2565b8063081812fc116101ab578063081812fc14610267578063095ea7b3146102a457806318160ddd146102cd578063200d2ed2146102f8576101d2565b806301ffc9a7146101d4578063047fc9aa1461021157806306fdde031461023c576101d2565b5b005b3480156101e057600080fd5b506101fb60048036038101906101f691906127d6565b610712565b604051610208919061281e565b60405180910390f35b34801561021d57600080fd5b506102266107f4565b6040516102339190612852565b60405180910390f35b34801561024857600080fd5b506102516107fa565b60405161025e91906128fd565b60405180910390f35b34801561027357600080fd5b5061028e6004803603810190610289919061294b565b61088c565b60405161029b91906129b9565b60405180910390f35b3480156102b057600080fd5b506102cb60048036038101906102c69190612a00565b6108a8565b005b3480156102d957600080fd5b506102e26108be565b6040516102ef9190612852565b60405180910390f35b34801561030457600080fd5b5061030d6108c8565b60405161031a9190612ab7565b60405180910390f35b34801561032f57600080fd5b5061034a60048036038101906103459190612ad2565b6108db565b005b34801561035857600080fd5b50610373600480360381019061036e9190612b4a565b6109dd565b005b34801561038157600080fd5b5061039c60048036038101906103979190612b77565b610a51565b6040516103a9919061281e565b60405180910390f35b3480156103be57600080fd5b506103d960048036038101906103d49190612ad2565b610aa7565b005b3480156103e757600080fd5b5061040260048036038101906103fd9190612b77565b610ac7565b005b34801561041057600080fd5b5061042b60048036038101906104269190612c09565b610c31565b005b34801561043957600080fd5b50610454600480360381019061044f9190612d86565b610d6e565b005b34801561046257600080fd5b5061047d6004803603810190610478919061294b565b610dcc565b60405161048a91906129b9565b60405180910390f35b34801561049f57600080fd5b506104ba60048036038101906104b59190612b77565b610dde565b6040516104c79190612852565b60405180910390f35b3480156104dc57600080fd5b506104e5610e98565b005b3480156104f357600080fd5b5061050e60048036038101906105099190612c09565b610eac565b005b34801561051c57600080fd5b50610525611015565b60405161053291906129b9565b60405180910390f35b34801561054757600080fd5b5061055061103f565b60405161055d91906128fd565b60405180910390f35b34801561057257600080fd5b5061058d60048036038101906105889190612dfb565b6110d1565b005b6105a960048036038101906105a49190612e91565b6110e7565b005b3480156105b757600080fd5b506105d260048036038101906105cd9190612f92565b6111f9565b005b3480156105e057600080fd5b506105fb60048036038101906105f6919061294b565b61121e565b60405161060891906128fd565b60405180910390f35b34801561061d57600080fd5b50610626611261565b60405161063391906128fd565b60405180910390f35b61065660048036038101906106519190612e91565b6112ef565b005b34801561066457600080fd5b5061066d611374565b60405161067a9190612852565b60405180910390f35b34801561068f57600080fd5b506106aa60048036038101906106a59190613015565b61137a565b6040516106b7919061281e565b60405180910390f35b3480156106cc57600080fd5b506106e760048036038101906106e2919061294b565b61140e565b005b3480156106f557600080fd5b50610710600480360381019061070b9190612b77565b61144d565b005b60007f80ac58cd000000000000000000000000000000000000000000000000000000007bffffffffffffffffffffffffffffffffffffffffffffffffffffffff1916827bffffffffffffffffffffffffffffffffffffffffffffffffffffffff191614806107dd57507f5b5e139f000000000000000000000000000000000000000000000000000000007bffffffffffffffffffffffffffffffffffffffffffffffffffffffff1916827bffffffffffffffffffffffffffffffffffffffffffffffffffffffff1916145b806107ed57506107ec826114d3565b5b9050919050565b60095481565b60606000805461080990613084565b80601f016020809104026020016040519081016040528092919081815260200182805461083590613084565b80156108825780601f1061085757610100808354040283529160200191610882565b820191906000526020600020905b81548152906001019060200180831161086557829003601f168201915b5050505050905090565b60006108978261153d565b506108a1826115c5565b9050919050565b6108ba82826108b5611602565b61160a565b5050565b6000600954905090565b600660149054906101000a900460ff1681565b600073ffffffffffffffffffffffffffffffffffffffff168273ffffffffffffffffffffffffffffffffffffffff160361094d5760006040517f64a0ae9200000000000000000000000000000000000000000000000000000000815260040161094491906129b9565b60405180910390fd5b6000610961838361095c611602565b61161c565b90508373ffffffffffffffffffffffffffffffffffffffff168173ffffffffffffffffffffffffffffffffffffffff16146109d7578382826040517f64283d7b0000000000000000000000000000000000000000000000000000000081526004016109ce939291906130b5565b60405180910390fd5b50505050565b6109e5611836565b80600660146101000a81548160ff02191690836002811115610a0a57610a09612a40565b5b0217905550806002811115610a2257610a21612a40565b5b7f7101a660456a4e2f94e6b0ccd3d6a034724e26130a817471aaf5a3de8fba384a60405160405180910390a250565b6000600a60008373ffffffffffffffffffffffffffffffffffffffff1673ffffffffffffffffffffffffffffffffffffffff16815260200190815260200160002060009054906101000a900460ff169050919050565b610ac2838383604051806020016040528060008152506111f9565b505050565b610acf611836565b600073ffffffffffffffffffffffffffffffffffffffff168173ffffffffffffffffffffffffffffffffffffffff1603610b3e576040517f08c379a0000000000000000000000000000000000000000000000000000000008152600401610b3590613138565b60405180910390fd5b60004711610b81576040517f08c379a0000000000000000000000000000000000000000000000000000000008152600401610b78906131a4565b60405180910390fd5b60008173ffffffffffffffffffffffffffffffffffffffff1647604051610ba7906131f5565b60006040518083038185875af1925050503d8060008114610be4576040519150601f19603f3d011682016040523d82523d6000602084013e610be9565b606091505b5050905080610c2d576040517f08c379a0000000000000000000000000000000000000000000000000000000008152600401610c2490613256565b60405180910390fd5b5050565b610c39611836565b60005b82829050811015610d6957600073ffffffffffffffffffffffffffffffffffffffff16838383818110610c7257610c71613276565b5b9050602002016020810190610c879190612b77565b73ffffffffffffffffffffffffffffffffffffffff1603610cdd576040517f08c379a0000000000000000000000000000000000000000000000000000000008152600401610cd490613317565b60405180910390fd5b6000600a6000858585818110610cf657610cf5613276565b5b9050602002016020810190610d0b9190612b77565b73ffffffffffffffffffffffffffffffffffffffff1673ffffffffffffffffffffffffffffffffffffffff16815260200190815260200160002060006101000a81548160ff0219169083151502179055508080600101915050610c3c565b505050565b610d76611836565b8060079081610d8591906134e3565b506007604051610d959190613643565b60405180910390207f6741b2fc379fad678116fe3d4d4b9a1a184ab53ba36b86ad0fa66340b1ab41ad60405160405180910390a250565b6000610dd78261153d565b9050919050565b60008073ffffffffffffffffffffffffffffffffffffffff168273ffffffffffffffffffffffffffffffffffffffff1603610e515760006040517f89c62b64000000000000000000000000000000000000000000000000000000008152600401610e4891906129b9565b60405180910390fd5b600360008373ffffffffffffffffffffffffffffffffffffffff1673ffffffffffffffffffffffffffffffffffffffff168152602001908152602001600020549050919050565b610ea0611836565b610eaa60006118bd565b565b610eb4611836565b60005b82829050811015610fe457600073ffffffffffffffffffffffffffffffffffffffff16838383818110610eed57610eec613276565b5b9050602002016020810190610f029190612b77565b73ffffffffffffffffffffffffffffffffffffffff1603610f58576040517f08c379a0000000000000000000000000000000000000000000000000000000008152600401610f4f90613317565b60405180910390fd5b6001600a6000858585818110610f7157610f70613276565b5b9050602002016020810190610f869190612b77565b73ffffffffffffffffffffffffffffffffffffffff1673ffffffffffffffffffffffffffffffffffffffff16815260200190815260200160002060006101000a81548160ff0219169083151502179055508080600101915050610eb7565b507f22f196d9cf5ab2abfb5e4f2e291a2452f5c28d88e99b62b74b9c6e62ab231a4460405160405180910390a15050565b6000600660009054906101000a900473ffffffffffffffffffffffffffffffffffffffff16905090565b60606001805461104e90613084565b80601f016020809104026020016040519081016040528092919081815260200182805461107a90613084565b80156110c75780601f1061109c576101008083540402835291602001916110c7565b820191906000526020600020905b8154815290600101906020018083116110aa57829003601f168201915b5050505050905090565b6110e36110dc611602565b8383611983565b5050565b600160028111156110fb576110fa612a40565b5b600660149054906101000a900460ff16600281111561111d5761111c612a40565b5b1461115d576040517f08c379a0000000000000000000000000000000000000000000000000000000008152600401611154906136cc565b60405180910390fd5b600a60008473ffffffffffffffffffffffffffffffffffffffff1673ffffffffffffffffffffffffffffffffffffffff16815260200190815260200160002060009054906101000a900460ff166111e9576040517f08c379a00000000000000000000000000000000000000000000000000000000081526004016111e090613738565b60405180910390fd5b6111f4838383611af2565b505050565b6112048484846108db565b61121861120f611602565b85858585611cc7565b50505050565b60606112298261153d565b50611232611e78565b61123a6107fa565b60405160200161124b9291906137af565b6040516020818303038152906040529050919050565b6007805461126e90613084565b80601f016020809104026020016040519081016040528092919081815260200182805461129a90613084565b80156112e75780601f106112bc576101008083540402835291602001916112e7565b820191906000526020600020905b8154815290600101906020018083116112ca57829003601f168201915b505050505081565b60028081111561130257611301612a40565b5b600660149054906101000a900460ff16600281111561132457611323612a40565b5b14611364576040517f08c379a000000000000000000000000000000000000000000000000000000000815260040161135b9061382e565b60405180910390fd5b61136f838383611af2565b505050565b60085481565b6000600560008473ffffffffffffffffffffffffffffffffffffffff1673ffffffffffffffffffffffffffffffffffffffff16815260200190815260200160002060008373ffffffffffffffffffffffffffffffffffffffff1673ffffffffffffffffffffffffffffffffffffffff16815260200190815260200160002060009054906101000a900460ff16905092915050565b611416611836565b80600881905550807f38fbb1c8b109c430f0c030e7ed076cf5611a307773a4e8e365601e8f8bceaec660405160405180910390a250565b611455611836565b600073ffffffffffffffffffffffffffffffffffffffff168173ffffffffffffffffffffffffffffffffffffffff16036114c75760006040517f1e4fbdf70000000000000000000000000000000000000000000000000000000081526004016114be91906129b9565b60405180910390fd5b6114d0816118bd565b50565b60007f01ffc9a7000000000000000000000000000000000000000000000000000000007bffffffffffffffffffffffffffffffffffffffffffffffffffffffff1916827bffffffffffffffffffffffffffffffffffffffffffffffffffffffff1916149050919050565b60008061154983611f0a565b9050600073ffffffffffffffffffffffffffffffffffffffff168173ffffffffffffffffffffffffffffffffffffffff16036115bc57826040517f7e2732890000000000000000000000000000000000000000000000000000000081526004016115b39190612852565b60405180910390fd5b80915050919050565b60006004600083815260200190815260200160002060009054906101000a900473ffffffffffffffffffffffffffffffffffffffff169050919050565b600033905090565b6116178383836001611f47565b505050565b60008061162884611f0a565b9050600073ffffffffffffffffffffffffffffffffffffffff168373ffffffffffffffffffffffffffffffffffffffff161461166a5761166981848661210c565b5b600073ffffffffffffffffffffffffffffffffffffffff168173ffffffffffffffffffffffffffffffffffffffff16146116fb576116ac600085600080611f47565b6001600360008373ffffffffffffffffffffffffffffffffffffffff1673ffffffffffffffffffffffffffffffffffffffff168152602001908152602001600020600082825403925050819055505b600073ffffffffffffffffffffffffffffffffffffffff168573ffffffffffffffffffffffffffffffffffffffff161461177e576001600360008773ffffffffffffffffffffffffffffffffffffffff1673ffffffffffffffffffffffffffffffffffffffff168152602001908152602001600020600082825401925050819055505b846002600086815260200190815260200160002060006101000a81548173ffffffffffffffffffffffffffffffffffffffff021916908373ffffffffffffffffffffffffffffffffffffffff160217905550838573ffffffffffffffffffffffffffffffffffffffff168273ffffffffffffffffffffffffffffffffffffffff167fddf252ad1be2c89b69c2b068fc378daa952ba7f163c4a11628f55a4df523b3ef60405160405180910390a4809150509392505050565b61183e611602565b73ffffffffffffffffffffffffffffffffffffffff1661185c611015565b73ffffffffffffffffffffffffffffffffffffffff16146118bb5761187f611602565b6040517f118cdaa70000000000000000000000000000000000000000000000000000000081526004016118b291906129b9565b60405180910390fd5b565b6000600660009054906101000a900473ffffffffffffffffffffffffffffffffffffffff16905081600660006101000a81548173ffffffffffffffffffffffffffffffffffffffff021916908373ffffffffffffffffffffffffffffffffffffffff1602179055508173ffffffffffffffffffffffffffffffffffffffff168173ffffffffffffffffffffffffffffffffffffffff167f8be0079c531659141344cd1fd0a4f28419497f9722a3daafe3b4186f6b6457e060405160405180910390a35050565b600073ffffffffffffffffffffffffffffffffffffffff168273ffffffffffffffffffffffffffffffffffffffff16036119f457816040517f5b08ba180000000000000000000000000000000000000000000000000000000081526004016119eb91906129b9565b60405180910390fd5b80600560008573ffffffffffffffffffffffffffffffffffffffff1673ffffffffffffffffffffffffffffffffffffffff16815260200190815260200160002060008473ffffffffffffffffffffffffffffffffffffffff1673ffffffffffffffffffffffffffffffffffffffff16815260200190815260200160002060006101000a81548160ff0219169083151502179055508173ffffffffffffffffffffffffffffffffffffffff168373ffffffffffffffffffffffffffffffffffffffff167f17307eab39ab6107e8899845ad3d59bd9653f200f220920489ca2b5937696c3183604051611ae5919061281e565b60405180910390a3505050565b6000611afd84610dde565b14611b3d576040517f08c379a0000000000000000000000000000000000000000000000000000000008152600401611b349061389a565b60405180910390fd5b611b4b8360095484846121d0565b611b8a576040517f08c379a0000000000000000000000000000000000000000000000000000000008152600401611b8190613906565b60405180910390fd5b600854341015611bcf576040517f08c379a0000000000000000000000000000000000000000000000000000000008152600401611bc690613972565b60405180910390fd5b600073ffffffffffffffffffffffffffffffffffffffff168373ffffffffffffffffffffffffffffffffffffffff1603611c3e576040517f08c379a0000000000000000000000000000000000000000000000000000000008152600401611c3590613a04565b60405180910390fd5b611c4a8360095461229a565b60096000815480929190611c5d90613a53565b9190505550611c6a61103f565b604051611c779190613a9b565b60405180910390208373ffffffffffffffffffffffffffffffffffffffff167f4153c3ec0ff3b346ce667e78679d2445461021076ee0d737375b04dfea89472560405160405180910390a3505050565b60008373ffffffffffffffffffffffffffffffffffffffff163b1115611e71578273ffffffffffffffffffffffffffffffffffffffff1663150b7a02868685856040518563ffffffff1660e01b8152600401611d269493929190613b07565b6020604051808303816000875af1925050508015611d6257506040513d601f19601f82011682018060405250810190611d5f9190613b68565b60015b611de6573d8060008114611d92576040519150601f19603f3d011682016040523d82523d6000602084013e611d97565b606091505b506000815103611dde57836040517f64a0ae92000000000000000000000000000000000000000000000000000000008152600401611dd591906129b9565b60405180910390fd5b805181602001fd5b63150b7a0260e01b7bffffffffffffffffffffffffffffffffffffffffffffffffffffffff1916817bffffffffffffffffffffffffffffffffffffffffffffffffffffffff191614611e6f57836040517f64a0ae92000000000000000000000000000000000000000000000000000000008152600401611e6691906129b9565b60405180910390fd5b505b5050505050565b606060078054611e8790613084565b80601f0160208091040260200160405190810160405280929190818152602001828054611eb390613084565b8015611f005780601f10611ed557610100808354040283529160200191611f00565b820191906000526020600020905b815481529060010190602001808311611ee357829003601f168201915b5050505050905090565b60006002600083815260200190815260200160002060009054906101000a900473ffffffffffffffffffffffffffffffffffffffff169050919050565b8080611f805750600073ffffffffffffffffffffffffffffffffffffffff168273ffffffffffffffffffffffffffffffffffffffff1614155b156120b4576000611f908461153d565b9050600073ffffffffffffffffffffffffffffffffffffffff168373ffffffffffffffffffffffffffffffffffffffff1614158015611ffb57508273ffffffffffffffffffffffffffffffffffffffff168173ffffffffffffffffffffffffffffffffffffffff1614155b801561200e575061200c818461137a565b155b1561205057826040517fa9fbf51f00000000000000000000000000000000000000000000000000000000815260040161204791906129b9565b60405180910390fd5b81156120b257838573ffffffffffffffffffffffffffffffffffffffff168273ffffffffffffffffffffffffffffffffffffffff167f8c5be1e5ebec7d5bd14f71427d1e84f3dd0314c0f7b2291e5b200ac8c7c3b92560405160405180910390a45b505b836004600085815260200190815260200160002060006101000a81548173ffffffffffffffffffffffffffffffffffffffff021916908373ffffffffffffffffffffffffffffffffffffffff16021790555050505050565b612117838383612393565b6121cb57600073ffffffffffffffffffffffffffffffffffffffff168373ffffffffffffffffffffffffffffffffffffffff160361218c57806040517f7e2732890000000000000000000000000000000000000000000000000000000081526004016121839190612852565b60405180910390fd5b81816040517f177e802f0000000000000000000000000000000000000000000000000000000081526004016121c2929190613b95565b60405180910390fd5b505050565b60008084866040516020016121e6929190613cbf565b604051602081830303815290604052805190602001209050600061220982612454565b9050612213611015565b73ffffffffffffffffffffffffffffffffffffffff166122778287878080601f016020809104026020016040519081016040528093929190818152602001838380828437600081840152601f19601f8201169050808301925050505050505061248a565b73ffffffffffffffffffffffffffffffffffffffff161492505050949350505050565b600073ffffffffffffffffffffffffffffffffffffffff168273ffffffffffffffffffffffffffffffffffffffff160361230c5760006040517f64a0ae9200000000000000000000000000000000000000000000000000000000815260040161230391906129b9565b60405180910390fd5b600061231a8383600061161c565b9050600073ffffffffffffffffffffffffffffffffffffffff168173ffffffffffffffffffffffffffffffffffffffff161461238e5760006040517f73c6ac6e00000000000000000000000000000000000000000000000000000000815260040161238591906129b9565b60405180910390fd5b505050565b60008073ffffffffffffffffffffffffffffffffffffffff168373ffffffffffffffffffffffffffffffffffffffff161415801561244b57508273ffffffffffffffffffffffffffffffffffffffff168473ffffffffffffffffffffffffffffffffffffffff16148061240c575061240b848461137a565b5b8061244a57508273ffffffffffffffffffffffffffffffffffffffff16612432836115c5565b73ffffffffffffffffffffffffffffffffffffffff16145b5b90509392505050565b60007f19457468657265756d205369676e6564204d6573736167653a0a33320000000060005281601c52603c6000209050919050565b60008060008061249a86866124b6565b9250925092506124aa8282612512565b82935050505092915050565b600080600060418451036124fb5760008060006020870151925060408701519150606087015160001a90506124ed88828585612676565b95509550955050505061250b565b60006002855160001b9250925092505b9250925092565b6000600381111561252657612525612a40565b5b82600381111561253957612538612a40565b5b0315612672576001600381111561255357612552612a40565b5b82600381111561256657612565612a40565b5b0361259d576040517ff645eedf00000000000000000000000000000000000000000000000000000000815260040160405180910390fd5b600260038111156125b1576125b0612a40565b5b8260038111156125c4576125c3612a40565b5b03612609578060001c6040517ffce698f70000000000000000000000000000000000000000000000000000000081526004016126009190612852565b60405180910390fd5b60038081111561261c5761261b612a40565b5b82600381111561262f5761262e612a40565b5b0361267157806040517fd78bce0c0000000000000000000000000000000000000000000000000000000081526004016126689190613d1a565b60405180910390fd5b5b5050565b60008060007f7fffffffffffffffffffffffffffffff5d576e7357a4501ddfe92f46681b20a08460001c11156126b6576000600385925092509250612760565b6000600188888888604051600081526020016040526040516126db9493929190613d51565b6020604051602081039080840390855afa1580156126fd573d6000803e3d6000fd5b505050602060405103519050600073ffffffffffffffffffffffffffffffffffffffff168173ffffffffffffffffffffffffffffffffffffffff160361275157600060016000801b93509350935050612760565b8060008060001b935093509350505b9450945094915050565b6000604051905090565b600080fd5b600080fd5b60007fffffffff0000000000000000000000000000000000000000000000000000000082169050919050565b6127b38161277e565b81146127be57600080fd5b50565b6000813590506127d0816127aa565b92915050565b6000602082840312156127ec576127eb612774565b5b60006127fa848285016127c1565b91505092915050565b60008115159050919050565b61281881612803565b82525050565b6000602082019050612833600083018461280f565b92915050565b6000819050919050565b61284c81612839565b82525050565b60006020820190506128676000830184612843565b92915050565b600081519050919050565b600082825260208201905092915050565b60005b838110156128a757808201518184015260208101905061288c565b60008484015250505050565b6000601f19601f8301169050919050565b60006128cf8261286d565b6128d98185612878565b93506128e9818560208601612889565b6128f2816128b3565b840191505092915050565b6000602082019050818103600083015261291781846128c4565b905092915050565b61292881612839565b811461293357600080fd5b50565b6000813590506129458161291f565b92915050565b60006020828403121561296157612960612774565b5b600061296f84828501612936565b91505092915050565b600073ffffffffffffffffffffffffffffffffffffffff82169050919050565b60006129a382612978565b9050919050565b6129b381612998565b82525050565b60006020820190506129ce60008301846129aa565b92915050565b6129dd81612998565b81146129e857600080fd5b50565b6000813590506129fa816129d4565b92915050565b60008060408385031215612a1757612a16612774565b5b6000612a25858286016129eb565b9250506020612a3685828601612936565b9150509250929050565b7f4e487b7100000000000000000000000000000000000000000000000000000000600052602160045260246000fd5b60038110612a8057612a7f612a40565b5b50565b6000819050612a9182612a6f565b919050565b6000612aa182612a83565b9050919050565b612ab181612a96565b82525050565b6000602082019050612acc6000830184612aa8565b92915050565b600080600060608486031215612aeb57612aea612774565b5b6000612af9868287016129eb565b9350506020612b0a868287016129eb565b9250506040612b1b86828701612936565b9150509250925092565b60038110612b3257600080fd5b50565b600081359050612b4481612b25565b92915050565b600060208284031215612b6057612b5f612774565b5b6000612b6e84828501612b35565b91505092915050565b600060208284031215612b8d57612b8c612774565b5b6000612b9b848285016129eb565b91505092915050565b600080fd5b600080fd5b600080fd5b60008083601f840112612bc957612bc8612ba4565b5b8235905067ffffffffffffffff811115612be657612be5612ba9565b5b602083019150836020820283011115612c0257612c01612bae565b5b9250929050565b60008060208385031215612c2057612c1f612774565b5b600083013567ffffffffffffffff811115612c3e57612c3d612779565b5b612c4a85828601612bb3565b92509250509250929050565b600080fd5b7f4e487b7100000000000000000000000000000000000000000000000000000000600052604160045260246000fd5b612c93826128b3565b810181811067ffffffffffffffff82111715612cb257612cb1612c5b565b5b80604052505050565b6000612cc561276a565b9050612cd18282612c8a565b919050565b600067ffffffffffffffff821115612cf157612cf0612c5b565b5b612cfa826128b3565b9050602081019050919050565b82818337600083830152505050565b6000612d29612d2484612cd6565b612cbb565b905082815260208101848484011115612d4557612d44612c56565b5b612d50848285612d07565b509392505050565b600082601f830112612d6d57612d6c612ba4565b5b8135612d7d848260208601612d16565b91505092915050565b600060208284031215612d9c57612d9b612774565b5b600082013567ffffffffffffffff811115612dba57612db9612779565b5b612dc684828501612d58565b91505092915050565b612dd881612803565b8114612de357600080fd5b50565b600081359050612df581612dcf565b92915050565b60008060408385031215612e1257612e11612774565b5b6000612e20858286016129eb565b9250506020612e3185828601612de6565b9150509250929050565b60008083601f840112612e5157612e50612ba4565b5b8235905067ffffffffffffffff811115612e6e57612e6d612ba9565b5b602083019150836001820283011115612e8a57612e89612bae565b5b9250929050565b600080600060408486031215612eaa57612ea9612774565b5b6000612eb8868287016129eb565b935050602084013567ffffffffffffffff811115612ed957612ed8612779565b5b612ee586828701612e3b565b92509250509250925092565b600067ffffffffffffffff821115612f0c57612f0b612c5b565b5b612f15826128b3565b9050602081019050919050565b6000612f35612f3084612ef1565b612cbb565b905082815260208101848484011115612f5157612f50612c56565b5b612f5c848285612d07565b509392505050565b600082601f830112612f7957612f78612ba4565b5b8135612f89848260208601612f22565b91505092915050565b60008060008060808587031215612fac57612fab612774565b5b6000612fba878288016129eb565b9450506020612fcb878288016129eb565b9350506040612fdc87828801612936565b925050606085013567ffffffffffffffff811115612ffd57612ffc612779565b5b61300987828801612f64565b91505092959194509250565b6000806040838503121561302c5761302b612774565b5b600061303a858286016129eb565b925050602061304b858286016129eb565b9150509250929050565b7f4e487b7100000000000000000000000000000000000000000000000000000000600052602260045260246000fd5b6000600282049050600182168061309c57607f821691505b6020821081036130af576130ae613055565b5b50919050565b60006060820190506130ca60008301866129aa565b6130d76020830185612843565b6130e460408301846129aa565b949350505050565b7f43616e6e6f7420776974686472617720746f207a65726f206164647265737321600082015250565b6000613122602083612878565b915061312d826130ec565b602082019050919050565b6000602082019050818103600083015261315181613115565b9050919050565b7f4e6f2062616c616e636520746f20776974686472617721000000000000000000600082015250565b600061318e601783612878565b915061319982613158565b602082019050919050565b600060208201905081810360008301526131bd81613181565b9050919050565b600081905092915050565b50565b60006131df6000836131c4565b91506131ea826131cf565b600082019050919050565b6000613200826131d2565b9150819050919050565b7f5472616e73666572206661696c65642e00000000000000000000000000000000600082015250565b6000613240601083612878565b915061324b8261320a565b602082019050919050565b6000602082019050818103600083015261326f81613233565b9050919050565b7f4e487b7100000000000000000000000000000000000000000000000000000000600052603260045260246000fd5b7f43616e6e6f7420616464207a65726f206164647265737320746f20776869746560008201527f6c69737421000000000000000000000000000000000000000000000000000000602082015250565b6000613301602583612878565b915061330c826132a5565b604082019050919050565b60006020820190508181036000830152613330816132f4565b9050919050565b60008190508160005260206000209050919050565b60006020601f8301049050919050565b600082821b905092915050565b6000600883026133997fffffffffffffffffffffffffffffffffffffffffffffffffffffffffffffffff8261335c565b6133a3868361335c565b95508019841693508086168417925050509392505050565b6000819050919050565b60006133e06133db6133d684612839565b6133bb565b612839565b9050919050565b6000819050919050565b6133fa836133c5565b61340e613406826133e7565b848454613369565b825550505050565b600090565b613423613416565b61342e8184846133f1565b505050565b5b818110156134525761344760008261341b565b600181019050613434565b5050565b601f8211156134975761346881613337565b6134718461334c565b81016020851015613480578190505b61349461348c8561334c565b830182613433565b50505b505050565b600082821c905092915050565b60006134ba6000198460080261349c565b1980831691505092915050565b60006134d383836134a9565b9150826002028217905092915050565b6134ec8261286d565b67ffffffffffffffff81111561350557613504612c5b565b5b61350f8254613084565b61351a828285613456565b600060209050601f83116001811461354d576000841561353b578287015190505b61354585826134c7565b8655506135ad565b601f19841661355b86613337565b60005b828110156135835784890151825560018201915060208501945060208101905061355e565b868310156135a0578489015161359c601f8916826134a9565b8355505b6001600288020188555050505b505050505050565b600081905092915050565b600081546135cd81613084565b6135d781866135b5565b945060018216600081146135f257600181146136075761363a565b60ff198316865281151582028601935061363a565b61361085613337565b60005b8381101561363257815481890152600182019150602081019050613613565b838801955050505b50505092915050565b600061364f82846135c0565b915081905092915050565b7f4d696e74696e67206e6f7420616c6c6f77656420666f722077686974656c697360008201527f7465642100000000000000000000000000000000000000000000000000000000602082015250565b60006136b6602483612878565b91506136c18261365a565b604082019050919050565b600060208201905081810360008301526136e5816136a9565b9050919050565b7f526563697069656e74206e6f742077686974656c697374656421000000000000600082015250565b6000613722601a83612878565b915061372d826136ec565b602082019050919050565b6000602082019050818103600083015261375181613715565b9050919050565b60006137638261286d565b61376d81856135b5565b935061377d818560208601612889565b80840191505092915050565b7f5f53686172642e6a736f6e000000000000000000000000000000000000000000815250565b60006137bb8285613758565b91506137c78284613758565b91506137d282613789565b600b820191508190509392505050565b7f4d696e74696e67206e6f7420616c6c6f77656420666f72207075626c69632100600082015250565b6000613818601f83612878565b9150613823826137e2565b602082019050919050565b600060208201905081810360008301526138478161380b565b9050919050565b7f526563697069656e7420616c7265616479206d696e7465642100000000000000600082015250565b6000613884601983612878565b915061388f8261384e565b602082019050919050565b600060208201905081810360008301526138b381613877565b9050919050565b7f4e6f7420617574686f72697a6564210000000000000000000000000000000000600082015250565b60006138f0600f83612878565b91506138fb826138ba565b602082019050919050565b6000602082019050818103600083015261391f816138e3565b9050919050565b7f4e6f7420656e6f7567682066656520666f72206d696e74696e67210000000000600082015250565b600061395c601b83612878565b915061396782613926565b602082019050919050565b6000602082019050818103600083015261398b8161394f565b9050919050565b7f526563697069656e742063616e6e6f74206265207a65726f206164647265737360008201527f2100000000000000000000000000000000000000000000000000000000000000602082015250565b60006139ee602183612878565b91506139f982613992565b604082019050919050565b60006020820190508181036000830152613a1d816139e1565b9050919050565b7f4e487b7100000000000000000000000000000000000000000000000000000000600052601160045260246000fd5b6000613a5e82612839565b91507fffffffffffffffffffffffffffffffffffffffffffffffffffffffffffffffff8203613a9057613a8f613a24565b5b600182019050919050565b6000613aa78284613758565b915081905092915050565b600081519050919050565b600082825260208201905092915050565b6000613ad982613ab2565b613ae38185613abd565b9350613af3818560208601612889565b613afc816128b3565b840191505092915050565b6000608082019050613b1c60008301876129aa565b613b2960208301866129aa565b613b366040830185612843565b8181036060830152613b488184613ace565b905095945050505050565b600081519050613b62816127aa565b92915050565b600060208284031215613b7e57613b7d612774565b5b6000613b8c84828501613b53565b91505092915050565b6000604082019050613baa60008301856129aa565b613bb76020830184612843565b9392505050565b7f546f6b656e2049443a2000000000000000000000000000000000000000000000600082015250565b6000613bf4600a836135b5565b9150613bff82613bbe565b600a82019050919050565b6000819050919050565b613c25613c2082612839565b613c0a565b82525050565b7f526563697069656e743a20000000000000000000000000000000000000000000600082015250565b6000613c61600b836135b5565b9150613c6c82613c2b565b600b82019050919050565b60008160601b9050919050565b6000613c8f82613c77565b9050919050565b6000613ca182613c84565b9050919050565b613cb9613cb482612998565b613c96565b82525050565b6000613cca82613be7565b9150613cd68285613c14565b602082019150613ce582613c54565b9150613cf18284613ca8565b6014820191508190509392505050565b6000819050919050565b613d1481613d01565b82525050565b6000602082019050613d2f6000830184613d0b565b92915050565b600060ff82169050919050565b613d4b81613d35565b82525050565b6000608082019050613d666000830187613d0b565b613d736020830186613d42565b613d806040830185613d0b565b613d8d6060830184613d0b565b9594505050505056fea2646970667358221220ca2bba9fce2aa1de8d8becad3aa8f87124cf37bc9786bf68bd04ae1e7ab2646864736f6c634300081c0033",
  "linkReferences": {},
  "deployedLinkReferences": {}
}